:100000000C9434000C9446000C9446000C9446006A
:100010000C9446000C9446000C9446000C94460048
:100020000C9446000C9446000C9446000C94460038
:100030000C9446000C9446000C9446000C94460028
:100040000C9446000C9446000C946A000C944600F4
:100050000C9455000C9446000C9446000C944600F9
:100060000C9446000C94460011241FBECFEFD8E03C
:10007000DEBFCDBF21E0A0E0B1E001C01D92A13004
:10008000B207E1F70E9487000C94A9000C940000CD
:1000900087E690E09093C5008093C40088E1809348
:1000A000C10086E08093C20008951F920F920FB6A0
:1000B0000F9211248F93EF93FF93E1ECF0E0808196
:1000C00080688083FF91EF918F910F900FBE0F900A
:1000D0001F9018951F920F920FB60F9211248F93B5
:1000E000EF93FF93E1ECF0E080818F778083E6EC83
:1000F000F0E0808180930001809100018083FF9176
:10010000EF918F910F900FBE0F901F90189587E67B
:1001100090E09093C5008093C40088E18093C10073
:1001200086E08093C20078948091C10080688093BB
:10013000C1008091C10080648093C10083B7817F3A
:1001400083BF83B7816083BF889583B78E7F83BF6A
:06015000F8CFF894FFCF88
:00000001FF
