S00C00006C365F332E73726563E4
S11300000C9480290C949D290C949D290C949D2971
S11300100C949D290C949D290C949D290C949D2944
S11300200C949D290C949D290C949D290C949D2934
S11300300C949D290C949D290C94BC290C949D2905
S11300400C949D290C949D290C949D290C949D2914
S11300500C949D290C949D290C949D290C949D2904
S11300600C949D290C949D2980808080807F807FC2
S11300707F7F808080807F80807F8080807F808081
S11300807F7F8080808080807F7F807F80807F8072
S11300907F7F7F7F8080807F7F7F807F8080808064
S11300A080807F7F807F7F7F807F7F7F80807F8055
S11300B07F807F807F7F8080807F7F7F8080808043
S11300C080808080807F80808080807F807F80802F
S11300D08080808080807F7F7F7F7F808080807F22
S11300E07F807F8080807F80807F7F7F807F807F14
S11300F080807F807F7F7F80807F80808080808100
S11301008080807F807F807F807F807F7F807F7FF3
S11301107F80807F80808080807F80807F7F7F80E1
S11301208080807F7F7F80808080807F80808080CF
S1130130807F7F808080807F80807F7F7F80807FC2
S113014080807F7F7F7F8080807F7F7F7F807F7FB5
S113015080807F808080807F80807F7F7F7F8080A1
S11301608080808080807F7F7F7F7F7F7F7F808093
S11301707F807F80807F807F7F7F807F807F808083
S11301807F807F7F807F7F7F7F7F80807F807F8075
S11301907F7F7F7F807F80807F8080807F80808062
S11301A07F7F81807F807F7F7F7F8080807F808052
S11301B07F807F8080807F808080808080807F803F
S11301C0807F7F807F7F7F80807F7F80807F808033
S11301D080807F7F7F7F7F807F7F7F807F807F7F26
S11301E080807F807F807F807F808080807F808010
S11301F081807F7F818080807F7F808080807F80FE
S1130200807F7F8080807F808080807F7F807F7FF1
S1130210808080808080807F7F7F7F7F7F7F807FE2
S113022080807F7F808080807F7F807F807F807FD1
S11302307F8180808180807F8080807F807F7F80BD
S1130240807F7F7F8080807F807F808081807F80AF
S1130250807F80807F807F807F80807F7F7F8080A1
S11302608080807F8080807F807F80807F807F7F90
S1130270807F7F80808080807F807F807F7F817F80
S11302807F807F7F7F807F7F80808080807F808071
S113029080807F80808080807F808080807F807F5E
S11302A0807F807F807F80807F8080808080807F4F
S11302B081807F7F7F807F80807F7F7F7F80808041
S11302C080807F7F7F808080807F7F7F80807F8031
S11302D08080807F8080807F7F807F80808080801E
S11302E080807F807F7F81808080808080807F800D
S11302F080807F807F7F7F7F808080808080807F00
S11303007F807F8080807F80807F7F7F7F807F7FF2
S11303107F80808080807F8080808080807F7F7FDE
S1130320817F7F80807F8080818080807F7F8080CC
S11303307F807F807F80807F80807F807F808080BF
S11303408080817F807F7F807F80808080807F81AC
S11303507F80808080808080808080808080807F9B
S11303607F80807F807F80807F7F7F807F80807F91
S11303707F7F7F7F7F808080807F7F7F807F7F8083
S1130380807F80807F80807F7F8080807F7F7F7F71
S11303907F807F807F807F7F808080808080807F5F
S11303A08080807F7F80807F7F7F80817F807F7F50
S11303B080807F8080807F7F7F7F80807F7F7F8041
S11303C07F80807F807F80807F8080808080807F2E
S11303D0808080807F7F7F807F808080807F807F1F
S11303E07F7F808080807F807F807F7F80807F8010
S11303F07F7F7F7F7F7F807F808080807F7F807F03
S1130400807F7F7F807F8080807F80807F7F7F7FF1
S11304107F80808080808080807F807F7F7F8080DD
S11304207F807F7F807F80818081808080808080CA
S1130430808080808080807F7F807F7F807F7F80BE
S113044080807F8080807F80808080807F7F7F80AD
S11304507F807F80807F807F7F80807F808080809E
S1130460807F807F80807F808080807F8080807F8D
S113047080807F80807F8080807F8080807F80807C
S1130480807F7F807F80808080807F807F7F80806E
S1130490807F7F80808080807F808080807F80805C
S11304A080808080807F807F807F7F80807F80804D
S11304B07F807F7F7F7F7F80807F807F807F808041
S11304C07F7F8080807F807F7F807F7F8080807F30
S11304D0807F7F81807F808080808180807F7F7F1C
S11304E080807F7F8080807F8080807F80807F800D
S11304F07F7F80808080807F807F7F7F80808080FE
S113050080807F7F80807F80807F7F80807F7F7FEF
S1130510807F807F7F808080807F7F7F7F80807FDF
S1130520807F8080807F7F8080808080807F7F7FCD
S1130530807F807F807F7F8080808080807F807FBD
S1130540807F7F80807F7F80807F807F7F807F7FB0
S11305508080808080808080807F807F7F7F80809B
S11305608080807F807F7F7F807F7F7F808080808E
S1130570808080807F807F7F7F7F7F8080807F807E
S11305807F807F7F80807F7F7F807F807F8080806F
S1130590807F808080807F807F7F807F807F80805D
S11305A080808080807F807F7F807F7F807F7F7F4F
S11305B07F807F8080808080807F80807F80807F3C
S11305C07F807F7F8080807F7F80807F807F80802E
S11305D0807F80807F8080807F7F807F7F80807F1E
S11305E0807F7F7F807F8080808080807F807F7F0E
S11305F080808080807F7F807F808080807F7F7FFD
S113060080807F7F80807F80807F7F807F808080EC
S1130610807F8080807F808080807F7F7F80807FDC
S1130620807F7F8080808080807F8080807F807FCB
S11306307F7F7F807F8180808080817F7F7F807FBC
S1130640807F808080808080807F807F7F808080AA
S1130650807F80807F80807F7F8080807F7F80809C
S113066080807F7F7F80807F7F7F807F807F7F7F90
S11306708080807F807F807F807F7F7F7F8080807D
S11306808080807F8080807F807F80807F807F7F6C
S113069080807F80807F807F80807F807F80807F5C
S11306A0817F7F8080807F7F807F807F80807F804C
S11306B07F80807F7F807F7F8080807F80807F7F3E
S11306C07F81807F7F80807F7F7F807F807F7F7F2F
S11306D0807F8080807F7F8080807F7F7F8080801C
S11306E080807F7F7F7F808080807F807F80807F0D
S11306F0808080807F807F7F7F808080807F8080FB
S113070080807F7F7F80807F7F80807F7F807F80ED
S11307107F8080807F7F7F8080807F8080808080DA
S11307207F7F7F807F7F8080807F8080817F7F7FCD
S11307307F7F7F7F7F8080807F7F7F7F807F7F7FC1
S11307407F7F817F7F80807F8080808080808080A9
S11307507F80807F8080807F808080807F7F807F9B
S113076080807F7F80807F808080808081807F7F89
S113077080818080808080807F8080808080808075
S11307807F80807F808080807F807F808080808069
S113079080807F7F807F7F80807F807F7F7F80805D
S11307A08080807F80807F80808080807F80808048
S11307B0807F808080808080807F7F7F7F7F807F3C
S11307C07F7F7F7F7F7F80807F7F7F807F80807F30
S11307D0807F808080807F7F80808080807F7F801A
S11307E07F8080807F807F807F8080807F80807F0B
S11307F08080807F80807F7F807F807F7F807F80FC
S11308007F7F80807F8080807F7F80818080807FE9
S1130810807F807F80807F7F80807F8080808080D9
S11308207F808080807F7F807F807F7F7F7F8180CB
S1130830807F807F807F807F7F80807F8080807FBB
S113084080807F80807F807F7F7F7F807F7F807FAD
S11308507F7F7F7F80807F807F8080807F81807F9B
S1130860807F808080807F8080807F7F7F80808089
S113087080808080807F7F80807F7F80807F807F7A
S11308807F80807F80808080807F807F7F7F80806A
S113089080807F807F7F807F7F80808080807F805A
S11308A080807F808080807F80807F7F8080808048
S11308B07F807F7F807F7F80807F807F7F807F803D
S11308C080807F807F807F80807F80808080807F29
S11308D0807F7F807F7F807F80808080807F80801A
S11308E07F807F80807F7F7F7F80807F7F807F800D
S11308F0808080807F807F807F808080807F807FF9
S11309007F80807F80807F80807F808080808080E7
S11309107F7F80807F807F807F7F7F7F7F808080DC
S1130920807F807F7F80807F7F807F8080807F80CA
S1130930807F807F8080807F7F807F7F807F807FBB
S11309407F808080807F7F8080807F80807F807FA9
S113095080807F807F7F8081807F80807F807F8098
S1130960807F8080807F80807F807F7F807F807F8A
S11309707F807F7F7F7F7F7F8080808080807F7F7C
S11309807F7F7F80807F7F808080807F80807F806A
S11309907F8080807F807F807F80807F7F80808059
S11309A07F80808080807F7F807F7F8080807F8049
S11309B07F7F807F807F807F7F807F80807F7F803C
S11309C0807F807F807F80808080807F8080808027
S11309D080808080808080807F7F808080807F8016
S11309E0807F7F7F7F8080807F807F7F7F80807F0C
S11309F07F80807F7F7F7F807F807F8080807F7FFC
S1130A007F807F807F7F7F7F7F807F7F80808080EB
S1130A1080807F807F7F8081807F807F807F807FD8
S1130A207F7F807F81808080807F7F7F8080807FC8
S1130A3080807F7F817F7F7F807F80807F7F807FBA
S1130A40808080808080807F808080807F7F807FA6
S1130A50807F80807F8080808080807F7F7F807F98
S1130A6080807F8080807F80808080818080808083
S1130A70808080807F807F807F807F7F7F7F7F7F7B
S1130A8080807F808080807F807F7F807F807F8068
S1130A9080807F807F81807F807F7F8080807F8057
S1130AA0808080807F807F808080807F7F7F7F7F49
S1130AB0807F80808080807F7F80807F807F7F8038
S1130AC08080807F808080807F80808080807F7F26
S1130AD07F807F80807F807F8180807F8080807F17
S1130AE080807F807F7F80807F8080807F7F807F09
S1130AF07F808080807F807F8080807F80807F7FF8
S1130B0080807F7F8080808080807F7F7F808080E6
S1130B10808080808080807F7F807F80807F7F7FD7
S1130B2080807F7F807E7F7F7F7F807F80807F80CB
S1130B308080807F7F808080807F808080807F80B5
S1130B40807F8080807F7F7F7F807F80807F7F80A9
S1130B507F7F7F8080807F807F7F8080807F807F99
S1130B607F7F807F8080808080807F80807F7F7F88
S1130B70807F80807F8080807F807F7F807F7F8078
S1130B807F7F80807F80807F807F8080807F807F68
S1130B907F7F7F807F807F7F7F8080807F7F80805A
S1130BA07F807F807F7F8080807F80807F80808047
S1130BB07F7F80807F7F80808081807F7F7F7F8038
S1130BC0807F80807F7F7F8080807F7F7F7F807F2A
S1130BD080807F80808080807F807F808080807F15
S1130BE08080808080807F807F80808080807F8004
S1130BF080807F7F80807F7F7F7F7F807F808080F9
S1130C00807F7F7F7F808080807F80808080807FE6
S1130C10807F7F7F807F807F8080807F80808080D6
S1130C2080808080807F807F7F807F80807F7F7FC7
S1130C30808080807F807F7F808080807F7F807FB6
S1130C40807F7F7F7F7F8180807F80807F7F7F80A8
S1130C5080807F7F7F7F7F8080807F80807F807F98
S1130C608080807F80808080807F7F7F807F7F8086
S1130C708080807F7F807F807F7F7F8080807F7F78
S1130C807F7F7F7F8080807F80817F7F807F7F8068
S1130C907F7F7F807F7F807F7F7F807F807F80805A
S1130CA07F7F8080807F807F7F7F807F807F808048
S1130CB080818080807F8181808080807F8080802F
S1130CC0807F807F8080807F7F7F807F7F7F808028
S1130CD08080807F7F8080807F8080808080807F14
S1130CE080807F7F7F7F7F7F7F807F7F7F7F80800B
S1130CF0807F7F7F7F80807F7F8080807F7F7F7FFA
S1130D007F8080807F808080807F80808080807FE3
S1130D10807F817F807F7F807F7F807F807F807FD7
S1130D207F80807F80807E7F807F807F807E7F7FCA
S1130D307F7F7F7F7F7F7F7E7F7E7F7F7F7F7F7FC1
S1130D407E7F7F7F7F7E7F7E7F807F7F7F7F807FB0
S1130D507F7F7F7F7F7E7F7F7F7F7E7F7F807F7FA0
S1130D607F7F7F7F7E7F80807F7F807F7F7F7F7F8D
S1130D707F8080808080808080807F80807F7F7F74
S1130D80808081807F8080807F808080807F808061
S1130D907F7F807F7F7F7F7F80807F80807F7F8059
S1130DA080807F807F7F7F80807F8080807F817E46
S1130DB0807F7F7F807F7F7F7F7F7F7F7F7E807F3D
S1130DC0807F7E7F7F7F7F7F80807E7E8080807F2C
S1130DD07F7F7F7F807F7F7F7F7E7F7F7F7F7F7F1F
S1130DE07F7F7F7F7F7F7F7F807F7F7E7F7F7F7F0F
S1130DF07F7F7F7F8080807F7F807F7F807F8080F8
S1130E0080807F7F7F7F7F7F7E7F7E7F7F7F7F7EEF
S1130E107F7F7F7F7F7F7F7F7F7F7F7F80807F7FDC
S1130E20808081808080818180808080807F8080BC
S1130E308081807F7F80807F8080807F7F7F807FB4
S1130E4080807F80807F807F7F807F8080808080A3
S1130E507F7F807F7F7F7F7F7F7F7F807F7F7F7F9C
S1130E607F7F7F7F7F7F7F7F807F807F7F7F7F7F8C
S1130E707F807F7F7F7F7F7F7E7F807F8080808079
S1130E80807F7F7F7E7F7F7F7F7F7F7F7F7F7F7F6E
S1130E907F7F7F7F7F7F7F7F7F7F7F7F7F7F807F5D
S1130EA07F7F807F7F7F807F8080818080807F7F45
S1130EB080808080808081808080807F7F7F7F7F32
S1130EC08080807F8080808080808080808180801E
S1130ED07F81807F80808080807F808080807F7F12
S1130EE07F7F807F807F7E7F7E7F807F7F7F7F7F0D
S1130EF0807F7F7F7F7F7F7F7F7E7E7F7E7E7F8000
S1130F00807F7F807F807F7F7F807E7F7F807F80E8
S1130F107F807F7F7F7F7E7F807F7F7F7F7E7F7FDD
S1130F207F7F7E7F7F807F808080808180808080C3
S1130F30807F80808080817F80817F8080808080AE
S1130F408080807F81808081807F808180807F809D
S1130F508080818080808080808080818080807F8C
S1130F607F80807F7F7E7F7E7E7F7F7F7F7F807E8E
S1130F707F7F7F7F807F807F7F807F7F7F7F7F8079
S1130F807F7F7F7E7F807F807F80807F80807F8067
S1130F907F7F807F807F7F7F7F7F7F7F7F7F7F7E5C
S1130FA07F7F807F7F7F7F7F7F7F7F7F807F808049
S1130FB080807F8080818181808180808181808028
S1130FC0808080808080808080808080818180801B
S1130FD08080818180818081808080818180808007
S1130FE08080808180807F80817F7F7F7F7F7F7F03
S1130FF07E7F7F7F7F7F7F7F7F7F7F7F7F7F7F7FFE
S11310007F7F80807F7F7F8080807F8080818181DF
S1131010807F7F7F8080807F7F7F7F7E7F7F7F7FD9
S11310207F7F7F7E7F7F7F807F7F7F7F80808080C8
S11310307F808080808180808080807F8180807FAD
S1131040807F7F8081807F7F7F7F7E7F7F807F80A6
S113105080807F808080808080808181818080808A
S113106080807F7E7F7F80807E808080807F7F7F86
S11310708180807F7F7E7F807F7F7F7F7F807F8076
S11310807F7F7F7F808081808180807F7F7F807F62
S11310907F80817F807F80808080807F7E817F7F52
S11310A07E7E7D7F807F807F7E7E7F7F808080814B
S11310B0808080807F7F807F7F807F808080818030
S11310C080808080807F808081827E7E7E7E7F7F24
S11310D0808181817F80807F808180818180807F09
S11310E07E80807E7E7D7F80807F7D7E7E7F838309
S11310F0827F808181817E7D7E80817F7E7C7C7FFA
S11311008082817E7F81848382807F7D7D7E7E7EDE
S11311107D7F7E818082817F808082808282827FC7
S11311207F81807F7B7B7D7E7F8181828080807DCB
S11311307D7F80827F80817F7D7B7C7C82808181BA
S1131140827F7E807E8082838182817F807E7E7D9D
S113115082827F7E797E8184817D81818080807B93
S11311607F7F7F8282837D7E7D7E8082838080817B
S1131170837F827D7C7E7E837E807B7879787E838C
S11311807F867F7E857F817B787F81898683858149
S1131190817E7D807D86857F85817E7C7477787F66
S11311A0817E8381827F7C7E797D837C84837C7F46
S11311B0797A797F7F7B818483867E7E817F868135
S11311C081878181807B7A7D807F81818183827D1B
S11311D0817E7E807D8285837E7E787A798A888707
S11311E0877A76737F7A797F7A8086847F777A7933
S11311F07E90998D8B8881797882787C7E7E7E86BC
S113120081737A737785948E84877F77707B777503
S11312107D7B7D82887C7377747F92928789817DC0
S1131220767880727C7C82838587727F797C9196C4
S11312308F8A89837E76817C7C7F7A8481847571B0
S11312407D7687948E87877E7C727880727F7A80A1
S11312507B807E6A7D747E8F8F8B86848079738198
S1131260787C7D80867F876D757A7A8E9290888867
S11312708281757D80797D7F81838779737B768395
S113128091928B8383847D7D7F717B797A7E817D4E
S11312906C78747C898F8A84817C777A8C827B8158
S11312A0777A83857473797788929086847F7C7546
S11312B07E827B8A868682837A6D76777E8F90881B
S11312C085818078757D797B7E848B898771727A3C
S11312D07689918E8882817D767C7A78777B7B8112
S11312E08C80727B787D91908A888483787A7E7AE8
S11312F0787C7E788279767A7C8589918A868381E6
S113130080787E7C777C807D8186727A78798A8EFB
S11313108E84817E7C787A7C7A787E7E7F8B7A73E9
S11313207878818C958889848180777E7C787E81A9
S113133081898575767D7B89958D898484877D7E79
S113134075737B757C8283786E797581908D8985C0
S11313507D7D7B8586787D777580867C6F777778D1
S11313608F908986807E7B77807A8186838380874D
S11313706D737B7387948D8884807F787C7B7B7B83
S1131380828C898D7C6C79757E92918A887F807B32
S11313907A7A7A77777E7B8D877276787689968B60
S11313A08A838080787D7A79797C797C84747A796F
S11313B079858F8C86867E817D7D7B7B777A7F7B2A
S11313C08979727C757F919187837F7C7D7B7E7E1A
S11313D07B797E7D8987707B747E86959185897EF5
S11313E0827E7D7F7C797F7C868B78767B79819009
S11313F094868983837F807C737A7478778A7E6D00
S113140077727B85958986837A7E7E8B7B7B7773E7
S11314107A858A72767677809691838A7D7F797EC3
S1131420807E84837E7D8C757474747C88998586B3
S1131430827D7B767C7B797E85888E8470737678DA
S113144083978F86867C7F797D7D76757B7989907D
S11314507A747579789498868B83807C7A80797A8B
S11314607A7977857F747C767C87968A87867F7F76
S11314707C7E7D79777E7787837277767A82969081
S113148084837E7C7D7B7E7D797C77838F78767484
S11314907781899E8C88847D7F7C7E817A7C7E7A2C
S11314A08F817379757A8496948786837F7D7E771E
S11314B07A787675818B707472767D8C9685887C4B
S11314C07F7F83847B7674777A8E7B7178717C8658
S11314D09A8F85867F797A818482818074888373E8
S11314E0776F777F94958786807C7B797B7D7A8400
S11314F082898D757274737C89988D85827D7D7BDC
S11315007B7C78777C7D9285777575778299948AD0
S11315108882807B7B7F7C7B77787C897678777206
S1131520808A988987837F7D7B7C7C787A7A7C8BA0
S1131530757576747C89978A87827D7E7C797F7CB9
S11315407979798D867478727A8395988A8A7F7F7F
S11315507D7A7E7C7B7D7A838C797679747C889A9B
S11315608F8A87807E7C7D767E7A76788A7F717595
S1131570727980948F88867B8382817D7874777575
S11315808483717772757B8D968B88837C797C8458
S1131590848282797F8A7D7676747A889B908B8820
S11315A07F7D7C777D7D81817F8E79777270757880
S11315B0919389897E7C7C797A79787779898B7C17
S11315C0757376768C988E8D867F7D7C7B797F791A
S11315D075798485777972778194948B8C80807DFA
S11315E07D797D7A7B7A8682717C727B7C9394860A
S11315F08D817D7F7C787C7D7878828B7875737320
S11316007B849B8E89897D7D7E797B7B7E797D8AB7
S113161080777975777D8D9B8B8F867E807C797AB8
S11316207D797A8687777674777A87958D8B8680AD
S113163083827B797677787C8776767472767D94EC
S11316408F898B7C7B7B81837E84767B8682787694
S113165075797991978C8C867D7D79787E7D857876
S11316608E8079776E79738197908B89807E7B7970
S11316707979797A838E7F7A7174757A90948C8C67
S1131680857F7C7B777C7977787F887F7D7377759E
S1131690849A8D8D87837F7D797A7A797C7E89732C
S11316A07777747E7C988D8B8D83817F7B787E7930
S11316B0797C8B8273766F7C7B8E97898B85807D1A
S11316C07B767C797C7A848677777674797C92953C
S11316D08A8D83817C787A7D797B7F897E77757228
S11316E07C7A8D918C8C8688817E797975797A83E0
S11316F081757770767883978B8B897E817B847FE5
S113170082757A83837E747575797C91928B8C86CD
S1131710807C767D7E847A85877B7B717476778600
S1131720968D8C86838178767A777A7D8D857C75A3
S11317306E77747F8F8E8B8983827B77787C777AC0
S11317407C85858177737A748C948C8D8785827A75
S11317507979787C7C847E737C727D7A8395898F99
S11317608B86847E787E7B777C83897974717579A6
S11317707F938D8B8784817F77767C77797D887D55
S11317807A7571767782948F8D8A82857A777E795D
S11317907A7F88877B7871797D7E908E8D8C898B1A
S11317A0807A7D76777C7E867F767271787A8B926A
S11317B0888D848186817C8570777D808674737240
S11317C07677828F8E8889848279787E87787D89FE
S11317D07F81757275787E8E918D8A858482777A01
S11317E077787B858D81796D7173798290898D8607
S11317F082847C7B7977777A7F8A817D707478792B
S1131800938D898D8488817D7C777A7E7D837A76B9
S11318107A72807B8B928991898887807D7D7779A4
S11318207F878675726F78788791858B8483837FB1
S1131830797975787781847D79707176798A9189DF
S11318408A8486827B7F79777D8088827B72737CB1
S11318507A83908C8C8D8A8B7E7F7C737C7B838552
S11318607D776E75787C918C878685868981807773
S1131870717C78867E7470707975878E888A868488
S11318807E7C7E867B788280857C766C767982927B
S11318908D8A8984887E7A7C757B7D8D8881766C3F
S11318A075777C898F878C8587847C7F77747C7A35
S11318B088878275697B71839488898886867C8110
S11318C07B727B7C7C7E7A7C73767C7A928D898E2B
S11318D0878B83818475777C7E897F76716F7A7B31
S11318E08D8F858B8386857D8179737A7783837FDA
S11318F0766C73757E918C868883877D8181737CF9
S11319007C8188807A6F767A7A8591898B8A8B87B5
S11319107A8776747E7C85857F756A7878819388EA
S11319208884868F8383806F7A777F867A786D71D7
S113193078788B8F888A83837F7F8B7F757E798588
S1131940847D726C78788694888788858777827896
S1131950787A818C82836F6E73797E8E8E868A8488
S11319608A7E808270787C808A84816D6E78738AA6
S11319709186888588827C8576767A7B7A80837C5A
S11319807173787B938A8988858C7F858173797D4F
S11319907F877A7870717E7B918D858C848B828031
S11319A08578777A7984827D726C7575849289865C
S11319B08385837D847B747B7A81847F786D75795C
S11319C07A8891888C898C818087777A7E7E8785D6
S11319D07F736C7A7887918887848A8B82867A73FE
S11319E0797583827C756C72767A8F8A88877F8218
S11319F0808789797A797A88807E6F6E78788B92FD
S1131A0086888789807B82787D79858682816F70DC
S1131A10727781928D888686877D857B727A7A88B3
S1131A2087867B6974737A8D8E858785887E8282AA
S1131A30777B787B7C86837B7075758195898885B7
S1131A40868680877C767D7881837B776E777B7FC3
S1131A50948C89888587818682777C777C87827C51
S1131A606D6F73768D8E898381847C82817679799A
S1131A7079838281766D76747C8D8E898B8887805C
S1131A808581787E7B828883806D7177788E8E875E
S1131A90878589858485747B777885807E746A756B
S1131AA0718291878882827D848D827979757F861F
S1131AB080796C737579928C868886847883817931
S1131AC07F7C84848381707176748A928A8A848804
S1131AD0827F8474797B808A8587726A73707E8F33
S1131AE08A888782837D857C797B797A83888375EC
S1131AF06E77718E93878A84867F8584777D7B7CDD
S1131B00817F7B767179788295898D898682828AB4
S1131B107D7B7C78808582776B73737B928A8784E4
S1131B20807E7B847D777B787B84827F7170747404
S1131B3082918B8B89848080877D7C7E7A85878661
S1131B407D6E77767F8E8C888A878880887D777D86
S1131B50767F828380746F76738A8F87877C7A839B
S1131B608A8E7E777C7884807E776D7574838E858B
S1131B70878185767A7F83837D8377838278757482
S1131B8076788A8D858780837F827E797C858B8732
S1131B9087777B7978797C888789847D8281818540
S1131BA07C78757B85848C8377787C8181827C7852
S1131BB07B81847D7E837D7A7E767B827F847F7F3A
S1131BC088818383828280877E787C7E7F7D7F7D0F
S1131BD0767D837F828385837D81898C847E7F78F3
S1131BE07C7D7E807C817D7C8486847B7F7E7C87FB
S1131BF089807A7E7F777C7C76787C7D84868083FE
S1131C00807C858881807A7A7C7D81837E7B817EDD
S1131C10807F7E87847D8586828584877B787F7EAE
S1131C207C7D8379747F817E7E77939182927A75AD
S1131C30787C7B79827C817E797F7D7B7E829294A5
S1131C40898F8379797B75717E7C808478756E74D5
S1131C50837C8A92858B8072767576757E7D7B898E
S1131C607F817D72817585978A92847D7D7C85795B
S1131C7082877D817F847976837A839E918E847B2B
S1131C80797C8A75787C7A8583847A6B7A7D749082
S1131C908C878A807C74787C777974777A7B867376
S1131CA07379768C948B837D80818589737A7A7C31
S1131CB08A7C8C7370887581898F88887F7879860F
S1131CC0857A86787E8286846D7A788197978C81EE
S1131CD0877B7F71737878878087798275757F7544
S1131CE0868D9386797380828A7F66716C80808406
S1131CF083687B7684918C8683867C8289918182B9
S1131D00796F74808D7C817E7A8C968E8A84807AB9
S1131D107D7E767184848484796E647B7D829988E7
S1131D2084887D7D74827A797A758088887F686BEF
S1131D307378999E928C7E797B7E80787A7B797495
S1131D407E7E7F71787F7C98878E8C7F8574827C81
S1131D507A777F847F8E767D758086858C788C8378
S1131D608C8B838971797C7F7C84856B7776768391
S1131D708986837E78737A867B7E7A777C858F707A
S1131D807C7978928C9F83877F7B8170847B838727
S1131D908383877A757C7A858A948B837F7D808818
S1131DA0836E7073797D857E696E707C858E8B7E83
S1131DB0847F7D878D7D7E76737380917C827B7E2C
S1131DC0818D9B8989827A767B7F738480817F81F0
S1131DD0746B747986859686848581797F7B7A8114
S1131DE0758C8686836C6A6C7B85999C8A89787DE0
S1131DF07A7F8179777778798A8272707D797F9911
S1131E008695867F7B737E7C7B7C83748D788479D6
S1131E107C8B7691828689848E83877D74777C809F
S1131E20838C6C6F7975838A8A80847B747A7F82D1
S1131E30817E79767A8E80737B718B849895808B82
S1131E407285717A837C8983828580717C78877FAF
S1131E508A8E84877F837F857474717676808E6D95
S1131E60706C758384927E88817D8A92867B7C7473
S1131E707677948083877A8B7A97908B8F747B6F35
S1131E80857A86837D7D7A81627A6E837F89937B6E
S1131E908B7E7C787A797D807E8F8183756B6E7181
S1131EA08481A18F908274817C877C7B727B78880B
S1131EB08D7670788072938E89967E82737A7C7E1A
S1131EC0807B797C837F827C887283947E92848AEF
S1131ED088838B727A7B7E8688796A77757C878B18
S1131EE07F81817575787E7F7F7C74768588737831
S1131EF077788A8E9E88887C7E7C73857E898783AA
S1131F008884747B8183837F91868D8C83807C7CA1
S1131F1075757476788C756E716B807A8F85828610
S1131F2079848E8A7E7A7877738A867A897C877BAD
S1131F30839C88937D796F7A87838E7C7778856894
S1131F40757377867A9B8085887A7E747B7A8480A1
S1131F508E887F7A67726E817B909B868F767B7F7B
S1131F6082837B7A767986907B707481747F99847E
S1131F70938A807E717E7B8280757B7F8180808A5C
S1131F80767294868790828A838480757B80808B26
S1131F9080696F767C7F8C847985797679737C808F
S1131FA07D7C727F897974767981869C9586867921
S1131FB083757886818C89828E787381858479880B
S1131FC08B8C90888378767A76777D728485687432
S1131FD0687B79808F7D89797F91888279757B7719
S1131FE07D8F797D807F84779790908B74777483CD
S1131FF08B8D877971877968796E847E8C977A8DD9
S11320007E807C737A7D858C91807E686970738113
S11320107C9A8D878576817D817D787C7A838F8695
S1132020716E7B79789094869083837B72807D83B4
S11320307C787F7E7F7D887F6D8492848B8B848A7D
S113204080807B77808483886C6D727A81839276BA
S11320508082767B74727E7D7C7A788581717876D5
S11320607A83929E8A877C7E7F768087858A868A19
S113207088717A81847C828C8D8F8D877D7774784A
S113208079797B7B89766B716D79798F848482779A
S1132090948588777079797E8786727E7E7E7C8649
S11320A0988F8C8174767A8E8E897D6E83866E6F1E
S11320B074747E84988782877C8675757D7F909101
S11320C08F8170646D74787B8A998986817B817C29
S11320D07F78757C7E96887B6C71797583968E8407
S11320E08B828376767E7F817A7E7E817B86836E09
S11320F079899086898786867D7C7C7885838D77AF
S113210068776E8A778E8A758E777C7E7378807F07
S11321107F79828B757776757E87A4928A807783A0
S11321207B7B8282848683957A6E7B7F8178868CA2
S11321308D8C8A817B757379777C78838A6C726DD8
S113214072777F957E8B7A8A8F868768757B7D828E
S1132150927B707F7C7C7C93978A8E7276788A934C
S113216080866F778A84677171777D8A9880868389
S113217080836E7C7B8898878D7C6B677576797C91
S11321809096898B7C80807C806F7A788D9586721E
S11321906773737A839A8587887E8271797E7B7C64
S11321A07B83868B7A8279677E8D96878D84828302
S11321B07A80758082848D6976707E896C8F817F48
S11321C08E7A7C7D757E7F7D7D78878D757771783D
S11321D07D8FA6898B7976837B7C837B7F838792B3
S11321E078757C7C7A7B838E8D8D867A7C707B7F00
S11321F0737B7C888371776D737A818E87888588F9
S11322008884756E747E7C85937574827B827A90E3
S1132210958B84717A888F8E8373777A907F6773B6
S11322206E768189948588887B7C7280858F887D91
S113223084796D7878737A7691988C8C787F8177AD
S11322407876777D9890826C7072747A76937E85B6
S1132250887C8471797E7A7D7A8C8B857D7F6B6CAA
S11322607E90998B947A878B81837B837D82817224
S1132270797E877B6E8189828A81707F737C827B81
S11322807B748F84717B747979929884827F7E8247
S113229082797C7882888D8E717680747C7B89903B
S11322A09193837E7F777A7C727B769282757A7241
S11322B07A7383848F85848A847C73777B7F7E8B17
S11322C085708082777D778F8B86887A88808D84ED
S11322D06E7C7385866871726D7E7B898C838B8836
S11322E07F7A78878F8886827F737C7C7877748402
S11322F09B948D8881817C7D7A79898E8C816E73A3
S11323006E7775738985828E837C7773737C7F790E
S113231079838689886E72718C948C8C7E7D84829C
S11323208380868774807379898382738B897E899D
S1132330707470797F858A778477817A7B7D728ADD
S113234090918C7B7C74788E84897D82867F837D5A
S11323507D7A7A828F88868A82777B788579747D84
S11323606E7F7979766E7F837C8F76727A818D8A9F
S113237089747A7384877C7B7A81958E89897E803F
S1132380738B7D898F89877C837274756C858A854C
S11323908A7D7F737E81827A84758196848C6F7640
S11323A07688868B787376768981817A807984833E
S11323B0757F877C8E878A7D75766C7F7A85798137
S11323C07C7E877A76797B7D90848D807977728420
S11323D08E838380848C8884817D848B8B8E7589A5
S11323E07C7B807E7A7372737E7E767B737394813A
S11323F0887E7777797B8C88887B758475837C82EB
S1132400728B9487907A7E7B7A847F857C8E91848C
S11324108C79806A7D918389737C7277807B7D6FF0
S1132420787A7D788788807A8B8381857C7E6E7EBE
S113243085817E827D8B827688767691848A897F77
S113244083687A7E837C75857B8D8585816F809199
S11324508B8687857B757D7F7A70847B7C847E7C8C
S11324606E7C907F87867680769282807E717B7583
S11324707F7782716E8D848787787C6D7D85798482
S11324808A878A807E7D767B8894868F87807C7F0E
S11324908B86787E86758A898285737C877A807C30
S11324A07B6F6C7F7C86797A77777F7D7C7D8C8966
S11324B08E8A897D77717D8285807F7D798882830C
S11324C07081848B8B84847A7D777D82797C826E23
S11324D0857D7B7F7081877F8C7A777F7E8B817F00
S11324E0787B7A84837D7F797B8C8C8F8B7B757BE7
S11324F08A808A857F7C867D7A767276848B868EC6
S11325007F8576797E7981807A908D83827A7A74D8
S113251090828A80787C747582867B7B74867D81C8
S11325208D7F748F888885707570777884747B79D3
S11325308089717B7A6F838C8A8E7F87777D828393
S1132540848183868D7D92847E868D918E86807D26
S1132550727D7D7C6F70787D797E7E6E7D8A8785C5
S1132560816F767680897F7D6F7C807F7C7C7C75B3
S11325708E9383878480787E808589878C8B847E04
S1132580847D73858B828C7E7E71797B827E717B68
S1132590757A848887737A938092807878727A8344
S11325A07A79828084797E7E7B828C868D88847C15
S11325B0717579817779817E8A8288737780819633
S11325C085887E757D79827F71827D847F83717336
S11325D0898D8A8D7F7B838488797F74797E8077E7
S11325E07B7C6F7B8C87868D7A7573797682877F07
S11325F0857A7E807F7E748B8C8A9385797C7E84B9
S11326008077817E8E908487777A828888837D7BA9
S113261074767D807F787A747C79798781868B82E1
S11326208C828078707B7F86717C728683847E74D2
S11326307F8199858A7C777C787E836B78788482A5
S1132640898F7183808B82827A8781837F7C7E727B
S113265081827E7D8D77747C888C8B8C7F717D806C
S11326608A837875798079907A7078898E878D805D
S1132670787A7A7B78727A888F848C7A787C8C9159
S11326807F8D817973777885777C83787D84907C5E
S1132690738189868E837E6F787D83747777798C56
S11326A07C8171757D8F888E897D7B7B827D767838
S11326B0817B807B8E847C88888D858F837A7676F7
S11326C0797B74797E767F8D867B837D8887918103
S11326D06A777B86827C74767E7F8A866F78838A2B
S11326E08589877A7A828184807D8A80817B8577D7
S11326F0777E86878C9287807E6F787E6D7B6C79FF
S1132700868B857D758D8B8B927A7378797D7F77B7
S11327107F798381827D797B88858E8E83877F7D97
S11327207883767C837E857D8674757471928483C8
S113273085797973857E7079737D7E89797C7E89CC
S1132740918D8F757B83827C816E76828C82888763
S11327507782879789857C7775777582827B857D7B
S11327607B85837A7A75878989847878778184757B
S11327707E7B7B8C85867A777D8F958989807D7D2C
S11327807D867E687875777A74867D8191898B8859
S1132790857F797377866D787776808C8476807878
S11327A08D878880797C75868A737C8381838991FF
S11327B07578788C87847E7C827D807D717478774F
S11327C07E778C7A7875858C8294867C837F8289E7
S11327D07B79767B7C9587797C83968E9386776FDD
S11327E0747D7A74757E86839282727A7A908685F5
S11327F0827C7570797D737A7D7A828188817A7A18
S11328008E8A928C83777C81877D7D8272787C85A9
S113281075796D8A868B8E7C7D787E837C6F7C7ADD
S11328207E7A8C8079857D918E8B80807F747C7795
S1132830757A7D7B7C888579817A897B848A6D79B8
S11328407586857E7C73738285917878798F8D8483
S1132850907A827D8486847A84847B7689767C816E
S1132860879388908181817B80786A7E72727C8D67
S1132870817C767C86878D81797376807F6D7B778A
S11328807E8389818179868D878F82837A82838909
S113289079797E808587876F767B7587897F857A4E
S11328A07D757B82727F76787E8E7776797D92864F
S11328B0947C7B7B80887D7276757D878F89787C1C
S11328C0779A928D8572777981787E85807D7A81F9
S11328D0837B8374888A808F787E767B897A8381F0
S11328E07C878A877C71767E928D8E837678778AD0
S11328F07E75756E737E7A7782808A8B8B838484EF
S1132900797B7E7B6E7C73767D868479867A8C8DEA
S113291081887878777A8A7F827F7A7F8A9A847F9F
S1132920747D8C868C78827F7B807072757B7C7ED4
S11329308A76757676907F8C88777F7F87897D7D90
S11329406E747D868A7D80768E8A9193837C717580
S11329507D7D7B7C888A88846D77749292858A7663
S11329607D7A788073777D7984818C847C757C888A
S1132970868C87807E7C81767D8B797D777C707F69
S1132980757A91808C7E797C7C897D787D727E7D60
S11329908889767E7D8395918D827C7B7479777826
S11329A080817F8485757F7E878C7A8774767B7F30
S11329B08D7D78776C7B8692787C727395828E831A
S11329C0787B7B81888089817E80817C737B809702
S11329D08D8A8779838588846A787A7A848C887AE0
S11329E0736F82898A8C7D7972777F6E7B7D768026
S11329F0857B8280818B85897E84787A87847C7BC1
S1132A007C7A828A8B7B6C7079828F85887D7879D9
S1132A10777E7C817D7B7F88807579798A8C8D8AAD
S1132A207C818188847075757486918E7B787284BC
S1132A30978E927E6E74807D7A8582747B7C827898
S1132A407C7976937F8B85747F7D7E7F7A84808387
S1132A509485826F737785918D927C757A7E7D7F64
S1132A607F786F81827786838585838485817B7E69
S1132A707C7B707B77707E8682777A798190878978
S1132A8081757E7C7E7F84857F7C898E85827D783E
S1132A90848991887E887F7D72757A747B82877F32
S1132AA072756C808B808F797484848B8184726B53
S1132AB0828186788175828D868E8382807B737D08
S1132AC07F7E838D88836F76757795868B857B7FF4
S1132AD07A7E7D7A7C7880878A8E837673848886F2
S1132AE0868182867D767C7B7C8384856E7C78700F
S1132AF08F84887F757C777B7F787E7C797E8586E2
S1132B008179767984968B8983787D787F7C7583C7
S1132B10858F8C807C737D93878980737C828F8280
S1132B207E746F78858B8177767589837E8A7B77CF
S1132B30797A827F838B7C828185756F758794898E
S1132B408D7D7B7C83857879777B818E8983796B96
S1132B5079888683887B7E837B7376807A7C848283
S1132B608084808B858789877F757F827F7E787557
S1132B707A7D918679707479888C88847376757976
S1132B8077727A7B819585797275818B898C837D47
S1132B90888580747C7A787E8D958B82767E8E840F
S1132BA08F8B797C7B847B8584797B7A8880767330
S1132BB071888B8E856F7B7D7A787A7E817A8F8B14
S1132BC08278737774878391837D7F7B7976837929
S1132BD0767E807C84897E8685878C817B7B7F7AE8
S1132BE07884786E7B89887B7E7E7A89908A8479E2
S1132BF0877E7A7C7B847E7F878E837D7E757E8ACA
S1132C0089877D83827C7575787274798C85817BE4
S1132C106B6F87868882758681868A80766F8186C7
S1132C20877F7D7C7A928E8C847886797A817B7C8E
S1132C307B8E8D8B7D757A70818686887F84776F95
S1132C407B7979748086878D8B7B6F7A8B85847E84
S1132C507A877F82807D7779848A817D7D6F848B7A
S1132C608787797E7F7680767A7779817F8285837C
S1132C7072797E918F848B7A7A7B787F72757F8E5E
S1132C80908B837375838F838D737380868A81772A
S1132C907177818B858076757E907C81807C7D7652
S1132CA086857C8781808384887176778C918B8DEF
S1132CB07C7F7C7B7F797A7B7587898C8470767C3A
S1132CC08A8084797980777C6F727A817F83858525
S1132CD081878987878584797A7B7F837C7B7F7CE6
S1132CE08B8784787A797D91828A7B7B79737A75F4
S1132CF073747D8B888370707A8B8C858B748B86D0
S1132D00857B7376767D828D8D8A7D817F8C888CA0
S1132D10817C817C8080857D7B7D83887A7C7474D2
S1132D2091868681727D797F7D78837B8A8D81838C
S1132D307177728386808C7D838075787B73767DD2
S1132D40837C8089848481868787787C7874807B7F
S1132D50767773808F867B7D7D849689887B7D7E64
S1132D607983797C7D7F899687857F767E85928538
S1132D70818084847779736E7677818182787172A9
S1132D807B8A82856D7B7F84927D7A7277848F853E
S1132D907D7D7B8A978C867D827B76847F817B890F
S1132DA0908884777973798F8283857B7F72777E2D
S1132DB07375787E888E8C7C7775858B8882768017
S1132DC07B7E857C727A7B85847B85777E8C8B8900
S1132DD07E7B7F727D797073797D868C8186767A2D
S1132DE07B94978A8D7D7B7A787E76757C838C86BE
S1132DF0897C77808E80897B7781808784766C7BE1
S1132E007A88837D72717B9288817E797C727D86DB
S1132E107E83827C867F847D7F788990868E84877A
S1132E207D7D7E757A837F898A898474777E8D829D
S1132E30837A7578777F7875747C787D7F848284D3
S1132E4087878880818280787E7D757A857F848279
S1132E507C767B7F8B967F887F7B7D787E746E7596
S1132E60748488827E74788B8B84867A8C81888142
S1132E706E7576838A89837E787F8F9785877A7843
S1132E807C808B81827D7B7A84827C766F7C8B8351
S1132E9089807B7D75837773837E8D8C827D717948
S1132EA075928D8386787E7B857C74757477838335
S1132EB087868683898E85897C767275797678791A
S1132EC07986857F7A757D7F9588817F797C7C84FE
S1132ED07D7880798C9488877A79797A8B938A8DB6
S1132EE085827C7973747276807C7E7677787C8236
S1132EF0878486747C84857F7278707E8886877EDA
S1132F007C817F859288877C727A7C857E888D8A95
S1132F108B837B75767875808A868C827E7B7478C9
S1132F20757B7E889082817779787A8890928D8774
S1132F30807F7A7B7772767C84848C86827F767BB2
S1132F408188827F7373717276767B81827C7C78D0
S1132F507986868287888885837B7F7B7A7B838357
S1132F6087877A7C7277838596988D8E848179762B
S1132F707A76767E8180807F7F807F768082908C57
S1132F808480727771797D7C85867F8182797F7D6B
S1132F907782828584868A8781727973787D7A7054
S1132FA07377757D7F828E8A88827B817B90837F15
S1132FB080787C85818788828485938A8F857C77D5
S1132FC0797D8983878E818177797273756F808427
S1132FD081867F797E7971757A757E887C7D757638
S1132FE07B78848F928D8785837F807D747A787FC8
S1132FF0888C8D8C85777F848A868178777C7B7CAE
S113300079788280747C7C7C858283827D857F7FD5
S11330107B81817E7D7E807C827C7976737E898BC8
S1133020928C87837B80797F7C767F8083817C818F
S113303084807379817C8B87867D77847D7E7F878E
S1133040898083857B81837D7A797A80848B8D8B5B
S113305084777F797B7E727378838577797D8381AA
S1133060777C7C7C8A85847C7D81787E7C85857D6B
S113307081808185897F76808085818C8E89868216
S1133080877B7C7D76767A868580807B7D75717D75
S11330907D82897F7D76848079847D8B8384897F1A
S11330A07D7C7A707479878088918989757D7D7932
S11330B07C7B7D7B85887F7778787B7D7B8280872E
S11330C08C887F7B837C808487877A838F888676CD
S11330D0736A77867F86848C88857E777D746E821A
S11330E08C8A8B877F77777C75787D807E7E8A78E3
S11330F0777A798090928A857F7D788272757B76E3
S11331008086887E7F827C7E91918C82737A6F72B6
S1133110827C7B7B7F7F7F8A7B847E6E8B8E85899E
S113312086797878847A7A7B8283738773758182CF
S11331308B95958C867B7E74807B7581777D808A68
S11331407D7380747D92918F8574797279877C7D8B
S11331507C82838182758378728A8C858D85797A65
S11331607B877B7F797B81738276717D80878D8B72
S1133170887F7A8477898A767B737278837974817D
S11331807C7E90918D817477707C8E8485848D8310
S113319085836F7672748E9D868B81776D75836F50
S11331A0797F7A8983837B69807482978D94858102
S11331B07A7A8979747777758189867687847B9D15
S11331C08D84877A847B7F8476797280787A747A26
S11331D07E7380859381878578747D887D7A747801
S11331E07A7F8072757E818690898E8A84817381CC
S11331F0787E86817D7F857878827E788F9B8986AC
S113320081787B7C818173788081878173777777FC
S1133210848E858681817B848D7A807B72737E83A4
S113322079767C75788B8A89847178818A91828198
S11332307876797D776D7E837F96918B8A807A6F9D
S11332407C897F85858488878B757473748B9E8F46
S1133250887B6C6F7284786F7778878B8075697CD4
S1133260767994888C8B82836E82807D7C757B7961
S11332708784767886779899838679837A7F8C7524
S11332807676817B827C798779848095878482763F
S113329072708C838279757D7F856D6F787C89955A
S11332A08C858E8389797F80788480847982777510
S11332B07F797E829A968E887374767C817776770E
S11332C07C888B75767E7B809089837F80837888E9
S11332D07E7F7E7875797C76797B7979888F838A0D
S11332E07C707E899A847F7B747685796F7A7E81FF
S11332F08E95898F817A716E7F828C89827F8B898A
S1133300767A7472769B98888474766F777F7573F7
S11333107D898E8072697877798D90889187857799
S11333207887797F767175858C7C747D7C879D8E9A
S11333308D7F768276867C75767E74837C74897CB8
S11333408A7C8D8A838A757A70798A827D797E8572
S11333508575717575868D9385898A82817A817B5D
S113336080867E7A847C737A707A788B9B8C8F7A51
S1133370757A758377787D72878878757B827C8D82
S11333808C818A7E8684787881808077767B737C52
S11333907A7D767D94868688737A8095897E7C751D
S11333A074817C707C768384958E8D8F7B766C792A
S11333B07F84908978838F767D7873758A9F888ED1
S11333C07B74746E7579787A868F84766C7777736C
S11333D07D8F8B8995887F7582837C7C71737E88D1
S11333E08577717C81959C8B88797F7B81827377CB
S11333F07C717887747E7C887E8491868D7F7C78CE
S1133400737B867D7A7A7F88797478757D89988BC9
S1133410848F8B807D7A7A7A83847D847F737871BC
S1133420768280968E8984757B757A7A717C7582B2
S1133430937979767D8084928588848A8878767F6A
S1133440837E80757D747683787D798B8A86917E80
S113345076799089837E74787D856C76727B868B91
S113346098858F847E79717C7B8B887A808F78793C
S11334707C747780998F88887C766B717879767B79
S11334808F8682707479727B84908A938E7F75752F
S113349080807B7B777C8A877C70797E899A8C8715
S11334A08080847E817C747B757D827A797285804C
S11334B0808B878C84817D747987827A7C798680FD
S11334C07477737D7C939486939086807B797A79E4
S11334D081808582747573777F7E908D898F7D7EE0
S11334E076757C71747D81927C767B7488808F8BF9
S11334F0838A808E7D777A7E817A7C7D79707D79EE
S11335007C79848F80947F7D7C898F7E7F70797EA7
S113351086716B75768286978885917E8078777BB5
S1133520808C7B838C7D7E74777C7890978D8B8266
S11335307E787276747B73868D82776D7A737681EA
S113354090908C8E867C7878837774797988818260
S113355073777C849D8D8B877E7F827C7D75777865
S11335607A84777F7281867D8A878B85827F7C7D52
S113357078857C777D838A7279717A768598888B51
S11335808A8A837E7B7C767882858B7972746E7C62
S11335907D8D8E8390878181797877717B7D878219
S11335A0757C758382849584878186897D77787F0D
S11335B07A7785816B797A787E82958689867A8511
S11335C0888C817B72787B85786C75717B80908F19
S11335D0858E867E7F797980838082897D7F7E74E3
S11335E0807583978F8D89817D75737677727F90CF
S11335F0867C6E7371747B8C8F888884857F7F81D1
S113360079727B7485817F78717E769796888C83B6
S11336108185817B7E74767A7C7B777A7F828283D4
S1133620928C8486817C7B7A7C7E777B828B787794
S113363074747579958D8A84838D847C80776F7B8F
S113364085888374737078808092838C888387796B
S11336507B7A72777D85877C7D777D847C9091836E
S1133660827E8785807C7A7D787E8676727B777D84
S11336707C8A8D838679838A888D7C7178787F7D36
S11336806D706D777D84988B8C8A7E807E7B837E43
S113369076838582818676787D7890988F8B7E7EFE
S11336A07B717F79717A8D888276756F7075808F62
S11336B08687808486817F806F777C7F82797D7125
S11336C07773849C8F8D857D838480807D737A7AE3
S11336D0797C7D87797E7B8B998488817D7F7C82D0
S11336E082747F81877E797B7172738A928F8880DE
S11336F0868B817F7D72757F86837972706E7B7A0B
S11337008C8F87887D877D76817875777E837E81AF
S11337107E7D7F7F88978B807C808883827C7B7E84
S113372080827A767677797B82908785807D8D8793
S11337308B81777B737A7C70706E727A78919389BF
S11337408982807F7C8884767E80817E8281787B7A
S11337507B8896908C85818177777B787B8787853A
S11337607877707076798E8787837D8A817C807A7A
S11337707A757D807881757B747292978E877F834A
S11337807A7F84807D7879737A818E79777B829948
S1133790888B837C827B7E807A7F8085847983702A
S11337A075737D908A90817F8A8B7E828074747F0A
S11337B0878077746C71718893848A827F7E767E29
S11337C081787976817E7F827B7C7E8390918384ED
S11337D080807F827F787F838085807875797F7D04
S11337E0918B84827C8A8B83897D7A7A6F7E7A72CC
S11337F0726F756E7F998A8F8A7E7A77898C7A7BCD
S11338007D7C837E827B787C7C908B878D8883789B
S11338107B7B777E8783847A73766A7873819082E0
S11338208B7F84877B867C7D7A79837D7C727679B5
S11338306D7E9894908C827D728386847A78777278
S1133840838A84727A788D96818D80807D79817562
S113385079848183787C76737F73828A8D8F868561
S1133860868283837B7978818C80736D737477957A
S11338708D8486817F7A7882797A787E827B817B57
S11338807B7B7E83928A86847C7C7E877C7A82851D
S113389080857B706F7F83848F8B8986878D847D01
S11338A080787E77777E77716B7578708D958C8A4A
S11338B0807D74898D7C737B8183857C7C757C7C25
S11338C0858F848C8B8878747D7582898D837F79CC
S11338D0736F707A73898A89887E877D817E7D8003
S11338E07D8B7F7C746E7C757589958E8A898075D5
S11338F07F897E82797E767F8B8276707B7B978FC1
S11339008689817F777E76728085837A787A7181E1
S11339107673888E948B89867D85817D77787F8484
S1133920887B6F7377758B90857F84817B7D7778B7
S1133930777D7C847E817D787D7C808C9486807B81
S11339407A798581798182868781776D77817E9086
S1133950908A8A868A877E7E797F7F7A7D777A715C
S11339606B796E80938A8C82817987897573787D6F
S1133970878B7A796E797E7C918687888786737F38
S1133980767D8688887B7D7A7670797486918A8C38
S113399082837E807B7A827E8D867B7C6E727C764F
S11339A0808E898A85817D76827B81817F7D8289F3
S11339B082786976759093848581837B807D757C1C
S11339C0848178767B797A7472868E9198918B7FD4
S11339D0817E797C7B7B7F8A83786E777786908003
S11339E0857A85828179707B7A7D7C837E8172730E
S11339F07D7789908484807F7883857D847C7F85AE
S1133A008381786E79818C968A8F8C8B857D7D708D
S1133A1080857B7D7C7E7B68747275938686857CCD
S1133A207D85877E73777A828F8781686E79718AC4
S1133A308E7D888C8A787F81828880847C7B877A5B
S1133A406B756D83918D8D84807A7F7F797D7C8683
S1133A508B808071697A7C828D858789827D797873
S1133A607C847F817D8390857B6A77718A96848B41
S1133A708081797E7B767579837D7E7B7A79767693
S1133A807B8B8D98938D7C7D837A7F7B7E7B878EE9
S1133A9076737A76828D7D848082837F7E71777D52
S1133AA0817F85837872777C7C7E8F8986877A7C18
S1133AB07E878181807A8889837A6F777A88848FF8
S1133AC09588927F7E8173797F81807D7F7C6F7AF8
S1133AD07673757892868A7B86877E766B768094F9
S1133AE08D89706F7C777A7B7889849085808781D3
S1133AF0887B85857E868579776E797A8586898ABD
S1133B00808B827F797C8284818176767A7E7979D2
S1133B1076777E829282887C7A7D7A8E82868B808A
S1133B20817B73757C80787C768A8C8C88737873BF
S1133B30818480808E808278707F82898180878B67
S1133B40878D7F7A76727D7B7E838F908482777275
S1133B507177847C87837F8F86897A7774707C7D84
S1133B607A848C7E766E7475868E928E897F7A7A4C
S1133B706D756B73767A8B8D929286857975758E59
S1133B8099888B767A7D7E88767E7A7580807B8133
S1133B9093817B77788B8F958D7C7D7079716C792F
S1133BA0757D787F83818986837F7E877E8C837E03
S1133BB0746F7B787C89868580757D7B7C85908617
S1133BC08A878A8786867B8076707B7982817975FD
S1133BD071848585888C8C84827C75747D7E6E76F8
S1133BE083858E8B807B71737C7B7E908A858578C0
S1133BF07C7683848187817F847671717376748700
S1133C0083908E8890757871787F7D85818A898488
S1133C107F7C7F82717B7F7D968A917F75737580AF
S1133C20818B8E8D858A807375717B79807D859279
S1133C30818D796E6C70777C87848181857F7F7AB2
S1133C407D7B7084809094888F7B7B757981888E4E
S1133C5092897C79726F747779797F809492838565
S1133C607275747981848A88817E777A787B847D81
S1133C7072787B8E88858475777582858E8C8B832C
S1133C807E7F7574797A7C80797E928A888777744E
S1133C90717C7A858B817D7C7D7E8282847C778237
S1133CA087988D91867A77727B7A8B8C8E83777BDB
S1133CB072747A7578787A879388887E7474787940
S1133CC077838587827E7E7880828378707B8693F3
S1133CD08B8D817271797E828C8B8C858380767BCF
S1133CE07D7C7B75788B8E87897C706F77757D86FC
S1133CF086827E817C7E8381847878828E92858C94
S1133D007C7471787D828E8F8B7E7C7973767978E2
S1133D1070747C908E8585787977797E83878B83A0
S1133D20797B797882858473758095928989767593
S1133D30737E80838D8B8A85807B797A7F7E76768D
S1133D407F8E878C857A74717A7C8080837A777F82
S1133D507C7C828481777B87978D8D887870707B5B
S1133D607C888E89857B7A747A797B747377899061
S1133D70878B7B7D75787C7E8484897E767C787D58
S1133D8085898171788B938A877C7571777C808D26
S1133D908C8F8A7F7E7B7A7A84767076898C898D03
S1133DA079776F757B7F7F7D84787A7E7B7D868D46
S1133DB07D7A829193908B7F746D7479818A8E8CD5
S1133DC07F7D7C7B787D7E6F777D908888897D7C04
S1133DD0747B7E81818882737779787E8C84737416
S1133DE07F958E89817C74727A7F828B928A877C9C
S1133DF07C7A74877D70767D8F848E857A7A727CE6
S1133E007C7B7E857E78797E76809483817C8695A2
S1133E108A8D847B6D6D797D838D8C847F7D7D74AB
S1133E207781717279878F848E817D7C777F7D7CA9
S1133E3081867B717B7876888E7E7E7A8F93898962
S1133E407F7C6F757B7C818C8F8981837C75858772
S1133E50707479858B8A897C7A7277827B777A8091
S1133E6077798077778A8B7E837D908B8A8A7F7639
S1133E7069767A80848B8B82857F77747F7D6F7A75
S1133E807D898787867E817C7D817D7E8580737830
S1133E907B797C8E847D837F9288887F7977727A20
S1133EA07B7F828C8E86897D777988776F797D8B0D
S1133EB087897F7D7B79818275777D7E767B7A7435
S1133EC07E9183878484958B90837E71707C7B81C3
S1133ED082878783847C77798273787B838B8686D9
S1133EE07C837E7A807F7C7B807A767B7779848BF7
S1133EF07D867D868F8683777E73757E7B818392B4
S1133F008D8B857A7B8183727779878888837A7EA3
S1133F107A7F807D7375807A807B76798389858AC0
S1133F207E8C8E8F867B776E767B7C7D818C868A79
S1133F308377788179747B7C8884878484827E8388
S1133F408580797A7C787976787D87848286828E7A
S1133F508D89807C7C76797B7A7D868C8686817B54
S1133F607F867975757C8785847B7B7B7B81807775
S1133F7073797D7F7E74757E8B858985858D8C8A2A
S1133F807E7C74737B7E7B8087898A8A7F76797F47
S1133F90787C798286838580857E7F86807B797A2A
S1133FA07A7A7A757884857F88838B8985817C7D0C
S1133FB075767C797A84878A8C897F7A837E777A0E
S1133FC074868586817F817B83857B72787A7A7E0D
S1133FD07972778584868886918C8E87807A7574C9
S1133FE0797B7C8181858C847E787E7B7A797988E3
S1133FF082867F80807D8287807A79767C817A7AD6
S11340007A837B8588868C84857F827C78787C7BA8
S11340108186858B8E85847C827777787A8783877F
S11340207A7D7E7B8285787475747B7D78767E88D4
S11340307E8B868B918B8A827D7473787E7B808065
S11340407F8F8B807E7C83767E777F878489818255
S11340507C7D898B7F7C76717E7B79797D80788984
S1134060828E8E8786807E7572797C7C8481808D39
S11340708686847F7E757C7483868681787C777857
S11340808382787A7675837B797983837D8980933B
S1134090908E877F7A72767E7E7D827F8590858101
S11340A07B7F79777C7586838B857F80767F8A8713
S11340B07D776D7681787C7A837D81878292898908
S11340C084817A74797C7D7F867F858E858A8183DD
S11340D076787A77888487807C7A7A7F877E787806
S11340E06D7A7E737A7D867D82828899908C827EB9
S11340F07375787C797E817A898A82837F84767EDF
S1134100787D86848A8078777C848B8480757281BC
S11341107C797B7C8579817E8B8F8587807E7776A1
S11341207B7F7F87807D8A8686808180737C748094
S11341308686887B76757C83827E7F72747E7778B0
S1134140798684798382969890887F79757A7C7C45
S11341507D817D818C88817B837C777E7583848D52
S1134160887D7678838A86807C71747E76777A837C
S11341707A787F82938D8E8581777576787B82803D
S113418078848D8C8882897A787B7A8481887E7819
S1134190727981837F837E727B7D75798087777B5B
S11341A07F8B98908E837E787B797B7D807B7B88E8
S11341B087827D7F87767C787A85888D7E7A778002
S11341C08687828678707E7A7678828274827F8C03
S11341D0918D8C827E76797A7C828279808A898AB2
S11341E07E8583717F75808186867A78757D807EF1
S11341F0818474737A72767A847D768481979394B9
S11342008E7C7A7777777B807C79868786847C8AB4
S113421081757D7683868E867C7977818485887E98
S113422076797A757B7C80777A807D9088928A7E95
S11342307C77767880837B7B868787827C89797993
S11342407E7987848A817E77767E7D80857C747989
S113425075757E808677808188988E96867C7A783C
S113426079797E7E7A7E87838381808A737C787A6B
S113427086858C807F777E848184837B757A757450
S11342807A7D8378817A84918B93847B7776777B2C
S113429083837B828A8487858488747D7780868201
S11342A0857D7A74797F8287857B76777276797E4D
S11342B08074817D90968E92817C7A797A7B7F7FDF
S11342C07D82867D817D8384737E7786888A897FDB
S11342D07E7780848385807A7A78737976847E7B0E
S11342E082778E8E91907F79777A7A7D7F7C7C82BB
S11342F089838880877F777D76878185837E7C74B8
S11343007B7A81847D797776747A7B867E7E8080E1
S11343109790908D7D7879787A7C7E7F7E83857D79
S113432085848A7B75787A8D8686807C7C7B85887B
S113433085847E7A7A79737679857A7A797B908D99
S113434091897B77787F82817E7F7F85858181815A
S113435087767B777E8D8688827D75767D81878161
S11343607B74797579797D8877807D8A968E948639
S113437078787A7C7E7D7D7F7A81817F8286837264
S11343807A76868E86877F7C787D8284847F79792D
S11343907D7476768185797D7789918E8F82747626
S11343A07D7E807E7D7F7F878685848A80767A7510
S11343B0898985867D7772788186857F77767B7615
S11343C078778380797E7C8E92908D80787A7B7FDB
S11343D0827C807D7E807D7F828A79787B798D89DD
S11343E088847F7E79808388817E787C7F777A78E1
S11343F0837C7B787B8C8C94897B7B7A7B808279B1
S11344007F7F818786838285777D797A8A86858492
S11344107D71737A7F887E79767C7C797B787F7CEA
S1134420807D87928E90857E7B7A79827F7B807C6B
S11344307F8081818884757D7883918684857E7868
S11344407C8184887F7A7A7F777A78797F777A75A6
S1134450858D8D91827D7B787D837B7D847F848730
S1134460847E8A82778075828D8688847A70767B52
S113447081847A78797E7B7F777D7E7A807C8D8B50
S11344808B8C818279777D817A7D82798184818028
S113449088797981778B8C8384847D76808283820A
S11344A07E7D797B787977817D7975798C8B8B8624
S11344B079847D7F87757C80838080897D82897EF5
S11344C07F7D72828C838A8878727B7D807F7D7AFF
S11344D0797B7D7C7D808783747C848A878E897FC9
S11344E07B797B7C797D7C7A828280898B858677D7
S11344F0757E897C898A797E807D7B827E7A7C7BCD
S11345007C8183838681797B797C838288868081A0
S11345107F7D7B80837E84867E85857E7D7B787AA5
S11345207F787B81798384807F7B7C7D7F7C7B79B2
S11345307A7E86878079797C88838B857885878164
S11345407D7B7E7B7F807F7F7C8780847D7D7C7785
S11345508389888C87888881817E7F7D837C787A33
S11345607E84848080787B7F8186797D79787A7D6A
S1134570807F7C7E7C7E7D857B797C82857881844E
S1134580858581817D778D878A8C7F74717F7E8814
S1134590867F80817D787D8374878A837E8A938AEF
S11345A08F817B6D7E7C777D767973737D7E837B53
S11345B07B827C77888D828A7B726E7C7B83857B11
S11345C07A747E7F8281778585877C8C90869782BA
S11345D0867A807D7A7E767E78788487867E8583E7
S11345E0857A83927F8D7A797479848382807577D2
S11345F07D7E897D7D80818C757E8F7E8F788077AE
S1134600727F79817A76797384907A837B808B7ECA
S113461080917F8980777B738786817F747A7880A5
S11346208B78817E8790878A86888A787C72737C6F
S1134630797D7B787772868777807A82848A818B8A
S11346408880797B77708986807D797D7C88857781
S11346507C7F81878A838B8B897A83756D7F7A7D52
S1134660787B7D76888477847F828B8E84908A8021
S11346707677746F88837C7B767D798880727D8180
S1134680868C8A7F8889867D867574897D7D767817
S113469078718C7D777F78848A8F828B867E7B7D10
S11346A073718A80847B7A7C7A8F7E7B7F7E868D11
S11346B08D8288868078817072827677737E777A2D
S11346C08C77808381879192818D847977786F77D5
S11346D0887F7D767D75848C767B7B8389928881C7
S11346E08E89848181727D837A79717970808972EF
S11346F0837C7E88948A7D88817A7E7C6F788884A6
S1134700837C7A748883788078828894838189838F
S11347107E7F7D717B7D787B757C6F828071867FE7
S1134720828C998B878F7F777C756E7C867E7F7970
S113473078798E7C74817C898F937E85908782833F
S11347407D737E7B787B737B728779768678808CA9
S1134750928182897D7D7F73717E82838379787A69
S11347608D797D7E79878D927D8389807F857D7427
S11347707C787779777875877480897F8996948334
S11347808988787C7D70737F80827D79767D88715D
S1134790807D7F8D938F7D888B7F81837976817BEC
S11347A0777878767B836E7B7E7D89988C7E868411
S11347B0797F7D6F727C83867F7D78858977857626
S11347C07D8792887D89857C838475737F787A7AE6
S11347D07978807F7484827D8C9B888488817780BB
S11347E07B717A7E81827A7B76807D7583798491F0
S11347F09585828B887E848377787F7A7B757777BB
S11348007D7A73817E80919584858882777E746DAC
S1134810798086877B7C79877F7D81748294948478
S11348208286817A837C74767A7B7F787A7B8277BE
S11348307C867F8192938787867E76817371797C6B
S11348408482797A78837881847986928D84848746
S1134850837D837C7C7D7C7B7C75767A7D727E7F98
S11348607E84958E8586847D798070727E828A842A
S11348707B787B8376827E7786958C8686867F7D21
S1134880817676797D7F7D77797E7B78827F81885A
S11348909B908B87817B787E6F727C7D86827B7612
S11348A07B7D78847E798B98888A8989807D827BD8
S11348B07B7A7D7D76777680787780797E88968717
S11348C08882827B797E6F7A7E83887C7B77827B09
S11348D07A83797A91968A8B83837A7F7E757979C4
S11348E07F7F79797783777D807B8090998B8C84A7
S11348F07F757A7A6D7A7A85847A797882777F81FE
S11349007A7B91938B8F85847A7F7E797B777C7891
S113491078777C84727E7C7C809192878A8280788E
S11349207A7773807E8A807A7B7F8278817E7A7FB1
S1134930948F8A88817E797F7A797F7C827A777373
S11349407F8174827A7B8598948D8C807D7A7B7547
S1134950737E7E847B79777C7A77807E7D82989162
S11349608F8D857F7A7D78787C7880777777827B66
S1134970777E777F89938C8C8B807A777773757F3A
S113498080857B7D80847A7B80827D849688898AF9
S1134990817D7B7D777B807B8077787B827A7D7C51
S11349A079828E968E8B87807B787A75767D7C83F0
S11349B0797C7D7B737D82817D8A958B8F8A7E7ADB
S11349C07D837C7D7E7B7E747A7A7D747777788331
S11349D090908C8B8A817B7876727A807F7F7B82C1
S11349E0807E747E7F80818E91898D867D7D7D7CA5
S11349F0747C7D7C7C777E7F80767B777E899390C8
S1134A008C89857C7A7876737A7D7F7C7D838077C8
S1134A10727D7D85818F918C8D857E7F807E78806F
S1134A207D7D7B797A7B787177768089948E8D8C85
S1134A30877C797575747D7E7F7E83868276747AB1
S1134A407C8383908F8A8A837F7C7C79747F7B7E4E
S1134A50797C7D817B767578818E978D8D89847F35
S1134A607A767572777A7D7D81807E73777D848690
S1134A7086918F8B8A82807F817A78807C7D7A7B15
S1134A807E7C7476737D828A8F8C8A85837B77772C
S1134A9078787C807E8086857C7174788383879027
S1134AA08B878784827D7F7A797F7F7D7A7A817B09
S1134AB0747474818797938F8E87847E75757572ED
S1134AC0797D7D8081837A76767986848C918D86D2
S1134AD08782807D8178787F7B797B7B8275727217
S1134AE0768183918E8C8A888178757875757D7EC0
S1134AF07E8787857975707E8685908E8A86888183
S1134B007F7B7C787C847A797D80847575717882EA
S1134B1088958D8D8885807976757376807B7D8484
S1134B20808076726F818289928D8B8A8B84838157
S1134B307D767C7F757A7C7F817474717D808A92A6
S1134B408C8E8A827B7B787476797E788189878360
S1134B5076717084838C8B888688887E7E79797957
S1134B608380717B8380837671737E8291928C8A39
S1134B7088817B7D7774777B7C7682858080756D78
S1134B80718387938F8F8E8C8780817C7B7A807DE5
S1134B906F7D8180817471757B818E908B8C877E13
S1134BA07A7E7673797B7A7587878782726F74824F
S1134BB088918B8A8C8A847F7D7679797E7A6F82DC
S1134BC084848375737780879391878B887A787EC2
S1134BD072737B7C797685838B7F6F6F76838A95FE
S1134BE08B8A8A888281837A7B797F7870827F84BA
S1134BF07F7170777C84918E888B87797B827577BF
S1134C007B7C767989858C796D6E79848B95888A9D
S1134C108B89827F7E787D797E737382828A8172AA
S1134C20737B818C978C868A84777B7C70777B7B83
S1134C30737A85838B776D7178889297898B89894C
S1134C40818280777C7B7E71778081887A6F7378AC
S1134C507F8F9288858880747F7D73797C7A758153
S1134C6087888D736E7179869193868A8A867C8112
S1134C707C797E7C7C727A8087897670737C829161
S1134C809186888B8377807871797B76727D838A2D
S1134C90887170717E899695868B898781877C78E7
S1134CA07D7C78737A7D89827473747C83928F8619
S1134CB085877E777F7A727B7E777880848C826E1C
S1134CC071747E87968D848C8983808276797E79CF
S1134CD077767B848D7C747276828A948A88888ABB
S1134CE07F7A7C73717C7D72777F878E7D6F6F7620
S1134CF0828F978C85898A848684797D7F7A75757D
S1134D0076818879787176808A948A8683867A7E99
S1134D107E72757C78727C7F8A8D797273798492C5
S1134D2094878688847F837D777E7E79787A7B8872
S1134D30887778737D848D9388858686797A757271
S1134D40797C76757E7F8D8B776E6E78899391886A
S1134D50898C8886877D787F7C7777787989847752
S1134D6078707A818D8C858585887E7E7574797B53
S1134D7078787C7F8E837973737B86938C8788861F
S1134D80848485797D81767377797A8A7F7579765B
S1134D907F8A938C888886817A7B71747978777717
S1134DA078809080757276828D938A878B888587C8
S1134DB082757A807A787A7C7E8A7C797A727B872B
S1134DC08F8585858684817B7077797B7B797C83ED
S1134DD08F7C7A72727F8E8F8487868784888078AE
S1134DE0817D77787A7B8189767B797A848B9085CB
S1134DF08585868483776C787775777A78838C77E2
S1134E0079747E89978F83848489868B7D75817D6F
S1134E1078767D7785897476707983918C8685819F
S1134E20858286716D777379797C7C908A7A8071BA
S1134E307B859489838481858689797A8279797A54
S1134E407D7A8A837378727F86948B868480878543
S1134E508472707675757379798E85787873858A9E
S1134E6098898284858A8989787D827B7776797727
S1134E708B7D727473808896898681808385806E29
S1134E80727776787D7E7E90817A7975818C94872D
S1134E90868082868882767C7B7A797C7C7E8E7A18
S1134EA0767676828C948787818083857B6D717317
S1134EB07979797A838C797C7575868F9286857EEB
S1134EC0868E8D837B7E7F8078797A7F86767874F0
S1134ED076818F90848883808788796F74767B7ECF
S1134EE07B78858A7A7C737787938F88837D868A9B
S1134EF0897E75767A7C787D7E8483767A7A7F84DF
S1134F00908D84867C7C8383757274727A797A7FBF
S1134F1088837B7C757E8B92888786828B8E867C49
S1134F2078797D7E797D7D83807679797E87918697
S1134F30817F797F8984767271777D7B7B7F8A8399
S1134F407977727C89958E87857F85867E79767858
S1134F507D7C7C7F81847A7A78778592938A878333
S1134F607B82867C74706C77807E838882767C7783
S1134F7079828D918587848184837B7976757D7C24
S1134F807B81878876777C7B848F8F8987817A82FF
S1134F90847B7574747B7E7E838B8276797577804F
S1134FA094908385818182857F7B7677817A7C7EEC
S1134FB0867E72787C7D8794908783807D83817AD6
S1134FC07671747D7B7B838B7B7779737D82948E02
S1134FD08588878381847A7B75777E7B7C808B7FD1
S1134FE0737B7D7E8B978D88837F7D81807F7A6EB6
S1134FF07576757B878F767879778084978C8284B1
S113500088837E7F7979767F837D7C848F7B787BB0
S1135010797D8C9589857E7C7D7E7D7D74707B79A0
S113502077818986747F7A7B7E86988A8684817C60
S11350307C827C7B747A7C7A7C868773777A7A7BB1
S113504090928B8F87877E7E817E7970766F768350
S11350508E867178747C7F8B94878684887C7D7D32
S1135060797D79837C7B7F8B86777675797F949243
S11350708D837F817D817F7A717379717A828A824F
S113508079817A7C7E90948C837E7F78817F7D7A0F
S1135090777D797C7F897B7578797C82938F928BFD
S11350A0877F7A8081817275746E7F868F7A71753D
S11350B0767F7F908F898284857A7E7F807C7E7DD7
S11350C07B7C848D797672797B87988E8D82817DC5
S11350D0767D7C77707774728087907F7B797B7F15
S11350E0839590877D807E78817F7B797B7A7E7EB5
S11350F087897578747D7A89958E9082827B78828F
S1135100847E72787375838D8B746F707B7E8491CB
S11351109086838A7F7B7F7F807D7C777C7E8B8972
S11351207274707A7B8F948C887F8379797C7D7696
S1135130737A7278818D8C7975747D808B97918266
S113514081827C7D7F7D777879777C7D8D84747A8C
S113515078807E8F95918982817A7C83807375763D
S1135160727C828E83717177807E8B948B8287832D
S11351707A7880807F807B7A7F82937E7172768357
S11351807E94938983818176787D7C767B77777A28
S11351908194817471777D819494898285857E7BE5
S11351A07E7A7779787D7C82907978767C7F7D971A
S11351B0948E87827F787E7F78737473777E8890ED
S11351C07C71707F7F818E8E87828A827A7D817ED8
S11351D07B7E787F7F898D767372808282938C85C3
S11351E083867D767A7B7A797974787D8B8F7B71EF
S11351F0717D8089928C848286817F7B7E787A7DA2
S1135200767F7D898A757473818086978E8A878577
S11352107D7B7E7A767673757F7F8C8775717280DD
S11352207D868F8D898A887F7C7C7E7A7B79768067
S1135230818D85747475858087948886868078745A
S11352407978797972767C7D928B7B7175817E8D8C
S11352508C89828286827E7B7A787F7B7A7E7F8D40
S113526081797479847E8C948A8988837C7B7D7728
S11352707779747D7E808C7F786F797D7A8B8A8D47
S11352808586857E7F7E7E7A7E787B80838B7A7628
S1135290737D84808C8C898A897F777775767B7718
S11352A0737D7A818E837B707C7E868E87888588E9
S11352B086837C75797A7C777A7A828B7E79727F21
S11352C0858692918988877F7C78777277747580D8
S11352D07B8589817B717A7B8289878B86868481B1
S11352E07D7F7E7E7D777E818883797573828384DA
S11352F08D8B8789867C797978767B74767E7C8EB3
S113530011241FBECFEFD8E0DEBFCDBF11E0A0E077
S1135310B1E0E4E4F4E502C005900D92A230B107D7
S1135320D9F721E0A2E0B1E001C01D92A430B20798
S1135330E1F70E940B2A0C94202A0C94000084B1FB
S11353408C6284B982E58CBD08958EBD0DB407FED0
S1135350FDCF8DB580688DBD80E008958CE787BD55
S113536084B5826084BDEEE6F0E080818260808353
S113537085B5826085BD08951F920F920FB60F9276
S113538011242F933F938F939F93EF93FF93209137
S113539002013091030180910001909101012817CD
S11353A0390720F01092030110920201E0910201EA
S11353B0F0910301E859FF4F8591949120910201E6
S11353C0309103012F5F3F4F30930301209302017B
S11353D02A98282F22952F70206B2EBD0DB407FE1E
S11353E0FDCF9DB590689DBD8295807F8EBD0DB427
S11353F007FEFDCF8DB580688DBD85B18B6F85B9F6
S1135400FF91EF919F918F913F912F910F900FBE3C
S11354100F901F901895789484B18C6284B982E5BA
S11354208CBD2A9A8CE787BD84B5826084BD809147
S11354306E00826080936E0085B5826085BDFFCF6B
S1075440F894FFCF0A
S1055444A4526C
S9030000FC
