:100000000C9434000C9449000C9449000C94490061
:100010000C9449000C9449000C9449000C9449003C
:100020000C9449000C9449000C9449000C9449002C
:100030000C9449000C9449000C9449000C9449001C
:100040000C9449000C9449000C9449000C9449000C
:100050000C9449000C9449000C9449000C944900FC
:100060000C9449000C94490011241FBECFEFD8E036
:10007000DEBFCDBF11E0A0E0B1E0E8E0F1E002C0FA
:1000800005900D92AA30B107D9F70E945A000C943E
:1000900082000C94000084B18C6284B982E58CBD2E
:1000A00008958EBD0DB407FEFDCF8DB580688DBD62
:1000B00080E0089584B18C6284B982E58CBD219A78
:1000C000299A90E02998E92FF0E0E050FF4F8081D5
:1000D00080958EBD0DB407FEFDCF8DB580688DBDBA
:1000E000299A81E0890F2FEF33ED40E32150304012
:1000F0004040E1F700C000008A3010F4982FE2CFB2
:080100009950E0CFF894FFCF05
:0A010800C0F9A4B0999202F880102B
:00000001FF
