:100000000C9441000C945E000C945E000C945E0015
:100010000C945E000C945E000C945E000C945E00E8
:100020000C945E000C945E000C945E000C945E00D8
:100030000C945E000C945E000C945E000C945E00C8
:100040000C945E000C945E000C942B010C94E00068
:100050000C945E000C945E000C945E000C945E00A8
:100060000C945E000C945E006364696E6F7073752F
:1000700078585B007265616400007772697465008E
:10008000000011241FBECFEFD8E0DEBFCDBF12E0CD
:10009000A0E0B1E0EAE8F2E102C005900D92A83BD1
:1000A000B107D9F723E0A8EBB2E001C01D92A63951
:1000B000B207E1F70E948F010C9443090C940000F1
:1000C000809100012091B802082E000C990B019636
:1000D000022E000C330B8217930791F380910001DD
:1000E000833621F48091B802882351F38091000176
:1000F0008F5F809300018091000184362CF0809105
:100100000001845680930001E09100010E2E000C46
:10011000FF0BE853FD4F8081082E000C990B0895CA
:100120002091B902909101012917D1F39091B90260
:10013000943621F490910101191694F79091B90227
:1001400094362CF09091B90294569093B902E091B4
:10015000B9020E2E000CFF0BE45DFC4F80838091F2
:10016000B9028F5F8093B90280910101833689F0D3
:10017000809101012091B902082E000C990B029682
:10018000022E000C330B8217930739F080E090E0C9
:1001900008958091B902813059F78091C100806241
:1001A0008093C100F3CF87E690E09093C5008093E1
:1001B000C40088E18093C10086E08093C200089566
:1001C0001F920F920FB60F9211242F933F938F938C
:1001D0009F93EF93FF9380910101833691F180917A
:1001E00001012091B902082E000C990B0196022EF4
:1001F000000C330B8217930741F1809101018F5F4F
:1002000080930101809101018436ACF4E0910101F9
:100210000E2E000CFF0BE45DFC4F80818093C60026
:10022000FF91EF919F918F913F912F910F900FBE72
:100230000F901F90189580910101845680930101C1
:10024000E5CF8091B9028111CACF8091C1008F7D25
:100250008093C100E5CF1F920F920FB60F92112429
:100260008F93EF93FF938091B80284362CF08091A6
:10027000B80284568093B802E091B8028091C6001B
:100280000E2E000CFF0BE853FD4F80838091B802C7
:100290008F5F8093B802FF91EF918F910F900FBE07
:1002A0000F901F90189580E28093B800ECEBF0E07F
:1002B00080818460808308958091BC0087FFFCCF9B
:1002C000089584EA8093BC008091BC0087FFFCCF36
:1002D000089584E98093BC00089580E98093BC0070
:1002E000089584EC8093BC008091BC0087FFFCCF14
:1002F0008091BB00089584E88093BC008091BC008D
:1003000087FFFCCF8091BB0008958093BB0084E8F9
:100310008093BC008091BC0087FFFCCF0895CF93F1
:10032000DF93CDB7DEB72D970FB6F894DEBF0FBEC3
:10033000CDBF87E690E09093C5008093C40088E12C
:100340008093C10086E08093C2008AEB92E020E9AE
:1003500030E03093C3022093C20220E630E03093B5
:10036000C5022093C40223E02093BD021092C7026D
:100370001092C602909395038093940390939303F5
:10038000809392039093910380939003789480914B
:10039000C10080688093C1000E9453011C861B86A7
:1003A0001D868AE0E2E0F1E08E010F5F1F4FD80169
:1003B00001900D928A95E1F79E01235F3F4F49011D
:1003C000CE010B965C015DE0C52E51E0D52E60E1BB
:1003D000E62E61E0F62E7EEF472E71E0572EE1E02B
:1003E0002E2EE2E03E2EF5E16F2EF1E07F2E1F93E0
:1003F0000F93DF92CF920E944A031F930F93FF92B5
:10040000EF920E9434036AE770E0C8010E942B0358
:100410000FB6F894DEBF0FBECDBF892BA1F164E704
:1004200070E0C8010E942B03892B09F7BF92AF929D
:100430005F924F920E944A038C858F938B858F9396
:100440003F922F920E9434030E9461018091B90073
:10045000887F0FB6F894DEBF0FBECDBF883009F499
:100460005EC08091B900887F1F928F9389E092E0EF
:100470009F938F930E9434030E946D010F900F9001
:100480000F900F90B4CF9F928F92BF92AF927F92B6
:100490006F920E944A038D851F928F938C858F9354
:1004A0008B858F938CE191E09F938F930E9434030F
:1004B0000E9461018091B900887F0FB6F894DEBF79
:1004C0000FBECDBF883091F08091B900887F1F9218
:1004D0008F9386E291E09F938F930E9434030E9452
:1004E0006D010F900F900F900F9081CF8B859C85A1
:1004F00088279170880F892F881F990B9195806AA2
:100500000E9485018091B900887F883149F18091EE
:10051000B900887F1F928F938DE491E0A9CF8B85DE
:100520009C8588279170880F892F881F990B91953A
:10053000806A0E9485018091B900887F883139F7EF
:100540008B850E9485018091B900887F883201F1F6
:100550008091B900887F1F928F938DE791E088CFBB
:100560008B850E9485018091B900887F883281F750
:100570008D850E9485018091B900887F8832B9F00D
:100580008091B900887F1F928F938BEA91E0A3CF6F
:100590000E9461018091B900887F8031C1F0809113
:1005A000B900887F1F928F938FE292E061CF0E9403
:1005B00069018091B900887F883F09F418CF809144
:1005C000B900887F1F928F938EED91E051CF8B857C
:1005D0009C8588279170880F892F881F990B91958A
:1005E000816A0E9485018091B900887F803441F042
:1005F0008091B900887F1F928F9387E592E038CF72
:100600000E947B018D878091B900887F883541F0F9
:100610008091B900887F1F928F9386E892E028CF5F
:100620000E9469018091B900887F883F41F68D85DD
:100630001F928F938C858F938B858F938DEA92E099
:100640009F938F930E9434030F900F900F900F9001
:100650000F900F90CCCEFB01DC018D91059080199D
:100660000110D9F3990B0895A0E0B0E0EAE3F3E0BC
:100670000C941C09AE014B5F5F4FFA0161917191BF
:10068000AF0180919203909193030E946003E2E096
:100690000C943809A0E0B0E0E0E5F3E00C941C090C
:1006A000AE014B5F5F4FFA0161917191AF01809193
:1006B0009003909191030E94DD06E2E00C943809CA
:1006C000ABE0B0E0E6E6F3E00C940C096C017B01D2
:1006D0008A01FC0117821682838181FFCCC1CE0181
:1006E00001963C01F6019381F70193FD859193FFFB
:1006F00081917F01882309F4BAC1853239F493FDD1
:10070000859193FF81917F01853229F4B60190E0B4
:100710000E945608E7CF912C212C312CFFE1F315D4
:10072000D8F08B3279F038F4803279F08332A1F44A
:10073000232D20611DC08D3261F0803369F4232D9B
:10074000216016C0832D8260382EE32DE4603E2E9A
:100750002AC0F32DF8601DC037FC2DC020ED280FF6
:100760002A3040F08E32B9F436FC81C1232D20644A
:10077000322E19C036FE06C08AE0989E200D112444
:10078000922E11C0EAE02E9E200D1124222EF32D70
:10079000F0623F2E08C08C3621F4832D8068382EFD
:1007A00002C0883641F4F70193FD859193FF819152
:1007B0007F018111B3CF982F9F7D9554933028F4FA
:1007C0000C5F1F4F9FE399830DC0833631F0833751
:1007D00071F0833509F059C021C0F8018081898307
:1007E0000E5F1F4F88248394912C530113C028015E
:1007F000F2E04F0E511CF801A080B18036FE03C01C
:10080000692D70E002C06FEF7FEFC5010E940D08F7
:100810004C018201F32DFF773F2E16C0280122E004
:10082000420E511CF801A080B18036FE03C0692D34
:1008300070E002C06FEF7FEFC5010E9402084C011B
:10084000F32DF0683F2E820133FC1BC0822D90E017
:1008500088169906B0F4B60180E290E00E9456082E
:100860002A94F4CFF50137FC859137FE81915F0121
:10087000B60190E00E94560821102A9421E0821AC5
:1008800091088114910471F7E8C0843611F089361B
:1008900041F5F80137FE07C0608171818281938143
:1008A0000C5F1F4F08C060817181072E000C880B00
:1008B000990B0E5F1F4FF32DFF763F2E97FF09C058
:1008C00090958095709561957F4F8F4F9F4FF06801
:1008D0003F2E2AE030E0A3010E94AB08882E861844
:1008E00045C0853731F4232D2F7EB22E2AE030E02B
:1008F00025C0932D997FB92E8F36C1F018F4883515
:1009000079F0B5C0803719F0883721F0B0C0E92FF1
:10091000E061BE2EB4FE0DC0FB2DF460BF2E09C0F9
:1009200034FE0AC0292F2660B22E06C028E030E02F
:1009300005C020E130E002C020E132E0F801B7FE5E
:1009400007C060817181828193810C5F1F4F06C057
:100950006081718180E090E00E5F1F4FA3010E94D3
:10096000AB08882E8618FB2DFF773F2E36FE0DC074
:10097000232D2E7FA22E891458F434FE0BC032FC96
:1009800009C0832D8E7EA82E05C0B82CA32C03C0D1
:10099000B82C01C0B92CA4FE0FC0FE01E80DF11D5A
:1009A0008081803321F49A2D997EA92E09C0A2FE60
:1009B00006C0B394B39404C08A2D867809F0B3942A
:1009C000A3FC11C0A0FE06C0B21488F4280C922C1F
:1009D0009B180EC0B21460F4B60180E290E00E9451
:1009E0005608B394F7CFB21418F42B1802C0982C01
:1009F000212CA4FE10C0B60180E390E00E945608AE
:100A0000A2FE17C0A1FC03C088E790E002C088E501
:100A100090E0B6010CC08A2D867859F0A1FE02C084
:100A20008BE201C080E2A7FC8DE2B60190E00E945B
:100A30005608891438F4B60180E390E00E94560805
:100A40009A94F7CF8A94F301E80DF11D8081B601E5
:100A500090E00E9456088110F5CF222009F442CE82
:100A6000B60180E290E00E9456082A94F6CFF60183
:100A70008681978102C08FEF9FEF2B96E2E10C9465
:100A8000280920FD09C0FC0123FD05C022FF02C08A
:100A90007383628351834083089544FD17C046FDEC
:100AA00017C0AB01BC01DA01FB01AA0FBB1FEE1F8F
:100AB000FF1F1094D1F74A0F5B1F6E1F7F1FCB01E2
:100AC000BA01660F771F881F991F09C033E001C064
:100AD00034E0660F771F881F991F3150D1F7620FDE
:100AE000711D811D911D08950F931F93CF93DF9367
:100AF0008C01C8010E941808EC0197FD08C00E94F3
:100B0000EE07892BB1F7B801CE010E949208CE0101
:100B1000DF91CF911F910F9108958F929F92AF9285
:100B2000BF92EF92FF920F931F93CF93DF938C01AD
:100B3000D62F7A01B22E0E9418089C0133272B323F
:100B4000310531F02D32310561F48B2D8068B82EDE
:100B5000D15011F480E068C0C8010E94180897FDC8
:100B6000F9CFCB2DCD7F2B2D207309F58033F9F4F0
:100B7000AA24AA94AD0E09F443C0C8010E94180823
:100B800097FD3EC09C012F7D33272835310549F460
:100B9000C264D250A9F1C8010E94180897FF07C08B
:100BA0002FC0B6FE02C0C26001C0C261DA2D812C26
:100BB000912C540120ED280F283080F0C4FF04C090
:100BC000B8010E94920819C02A3040F0C6FFF8CF41
:100BD0002F7D3FEE320F363098F727504C2FC5014E
:100BE000B4010E944D054B015C01C260D15059F027
:100BF000C8010E94180897FFDDCFC1FD04C0AACF2D
:100C0000812C912C5401C7FF08C0B094A0949094FB
:100C10008094811C911CA11CB11C2C2FB501A40136
:100C2000C7010E94410581E0DF91CF911F910F9193
:100C3000FF90EF90BF90AF909F908F900895A0E2AB
:100C4000B0E0E5E2F6E00C940F095C01962E7A0123
:100C5000F9018E010F5F1F4F680180E2D8011D92DC
:100C60008A95E9F7D50113968C9080E090E0612C8D
:100C7000712C30E061E070E083FC259183FE2191CE
:100C80008F01522E211103C080E090E092C02E35DA
:100C900011F4009751F1432F50E0481759073CF4E5
:100CA0002D3559F12D3219F4772009F103C0772041
:100CB00009F46AC0452D469546954695D601A40F80
:100CC000B11D452D47708B0102C0000F111F4A95C1
:100CD000E2F7A8015C91452B4C93651459F056142A
:100CE00010F45394E7CF5A94E5CF31E004C0772451
:100CF000739401C0712C0196BFCF772019F08E81BB
:100D000080628E83311103C08824839417C0F6015A
:100D10009E012F5D3F4F8081809581932E173F0765
:100D2000D1F7F2CFE114F10429F0D7018C93F70148
:100D300031967F019A94812C9920F9F0C5010E9487
:100D4000180897FD18C0FC01FF2723E0F595E795EB
:100D50002A95E1F7EC0DFD1D208130E0AC014770D4
:100D6000552702C0359527954A95E2F720FDDACF41
:100D7000B5010E949208811087CFE114F10411F0AF
:100D8000D7011C92C80115C0422F4695469546953D
:100D9000D601A40FB11D422F47708B0102C0000F76
:100DA000111F4A95E2F7A8015C91452B4C93622EE6
:100DB000A2CFA096EFE00C942B09A0E0B0E0E3EE08
:100DC000F6E00C940F096C01EB015A01FC0117824B
:100DD0001682512CF601E380FE01E3FC8591E3FECF
:100DE0008191182FEF01882309F4EEC090E00E9452
:100DF000EE07892B21F0C6010E947405EBCF153256
:100E000041F4FE01E3FC1591E3FE1191EF0115326F
:100E100081F4C6010E94180897FDD4C0412F50E00C
:100E20009C01332724173507A9F2B6010E949208C6
:100E3000CBC01A3239F4E3FC1591E3FE1191EF01B6
:100E400001E001C000E0F12C20ED210F2A3080F4F8
:100E500002606F2D70E080E090E040E20E944D055E
:100E6000F62EFE01E3FC1591E3FE1191EF01ECCFAC
:100E700001FF03C0F11003C0A7C0FF24FA94183685
:100E800019F01C3651F010C0FE01E3FC1591E3FE91
:100E90001191EF01183641F408600460FE01E3FC93
:100EA0001591E3FE1191EF01112309F48DC0612F1B
:100EB00070E088E690E00E94F707892B09F484C06F
:100EC00000FD07C0F50180809180C50102965C019C
:100ED00002C0812C912C1E3651F4F60146815781B7
:100EE00060E070E0202FC4010E94410573CF1336EB
:100EF000A9F401FD02C0FF24F394C6010E94180862
:100F000097FD60C08114910429F0F4018083C4012D
:100F100001964C01FA94F110F0CF50C01B3559F4F2
:100F20009E01A4016F2DC6010E941F06EC01892BB2
:100F300009F044C03EC0C6010E94740597FD42C03E
:100F40001F3661F128F4143639F1193651F128C0F1
:100F5000133771F0153701F123C08114910429F082
:100F6000F4016082C40101964C01FA94FF2071F0F3
:100F7000C6010E9418083C0197FD08C00E94EE07B8
:100F8000892B59F3B601C3010E9492088114910480
:100F9000A9F0F401108212C0006203C0006101C018
:100FA0000064202FA4016F2DC6010E948D058111C0
:100FB00005C0F6018381807329F406C000FD0ACFC5
:100FC000539408CF552019F0852D90E002C08FEF83
:100FD0009FEFCDB7DEB7EFE00C942B0991110C9485
:100FE0000909803219F089508550C8F70895FC012D
:100FF0000590061621F00020D9F7C0010895319719
:10100000CF010895FC010590615070400110D8F7A0
:10101000809590958E0F9F1F0895FC016150704040
:1010200001900110D8F7809590958E0F9F1F08951D
:10103000CF93DF93EC012B8120FF33C026FF0AC042
:101040002F7B2B838E819F8101969F838E838A8144
:1010500090E029C022FF0FC0E881F9818081082E2D
:10106000000C990B009719F420622B831AC031965B
:10107000F983E8830EC0EA85FB85099597FF09C0CF
:101080002B81019611F080E201C080E1822B8B83DD
:1010900008C02E813F812F5F3F4F3F832E839927CA
:1010A00002C08FEF9FEFDF91CF9108950F931F93B1
:1010B000CF93DF93FB01238121FD03C08FEF9FEFCF
:1010C0002CC022FF16C046815781248135814217EA
:1010D000530744F4A081B1819D012F5F3F4F3183BD
:1010E00020838C93268137812F5F3F4F3783268360
:1010F00014C08B01EC01FB010084F185E02D099502
:10110000892BE1F6D80116968D919C91179701963F
:1011100017969C938E931697CE01DF91CF911F91D6
:101120000F910895FB01238120FF12C026FD10C0FE
:101130008F3F3FEF930761F082832F7D20642383ED
:1011400026813781215031093783268399270895D5
:101150008FEF9FEF0895FA01AA27283051F120312F
:1011600081F1E8946F936E7F6E5F7F4F8F4F9F4F3B
:10117000AF4FB1E03ED0B4E03CD0670F781F891F7D
:101180009A1FA11D680F791F8A1F911DA11D6A0F4B
:10119000711D811D911DA11D20D009F468943F91FE
:1011A0002AE0269F11243019305D3193DEF6CF01FD
:1011B0000895462F4770405D4193B3E00FD0C9F7C3
:1011C000F6CF462F4F70405D4A3318F0495D31FD30
:1011D0004052419302D0A9F7EACFB4E0A695979583
:1011E000879577956795BA95C9F700976105710559
:1011F00008959B01AC010A2E0694579547953795A3
:101200002795BA95C9F7620F731F841F951FA01DFC
:1012100008959927882708952F923F924F925F92C1
:101220006F927F928F929F92AF92BF92CF92DF92F6
:10123000EF92FF920F931F93CF93DF93CDB7DEB75B
:10124000CA1BDB0B0FB6F894DEBF0FBECDBF0994EF
:101250002A88398848885F846E847D848C849B8446
:10126000AA84B984C884DF80EE80FD800C811B8154
:10127000AA81B981CE0FD11D0FB6F894DEBF0FBE83
:0A128000CDBFED010895F894FFCFF3
:10128A00FFFF00000000000000000000A02573001E
:10129A0025733A200025782568687800252E33784A
:1012AA002025640A0D00493243207772697465204B
:1012BA007374617274206661696C65642C2073743E
:1012CA00617475733A20252E32780D0A004932432B
:1012DA0020454550524F4D207772697465207265DA
:1012EA007175657374206661696C65642C2073740A
:1012FA00617475733A20252E32780D0A00493243FB
:10130A0020454550524F4D207365742061646472C4
:10131A00657373206661696C65642C2073746174EB
:10132A0075733A20252E32780D0A0049324320453A
:10133A004550524F4D2064617461207472616E731E
:10134A006D6974746564206661696C65642C2073C8
:10135A0074617475733A20252E32780D0A00493269
:10136A00432073746F70206661696C65642C207306
:10137A0074617475733A20252E32780D0A00257827
:10138A0000252E3033780A0D0049324320726561F8
:10139A0064207374617274206661696C65642C20C0
:1013AA007374617475733A20252E32780D0A0049D8
:1013BA003243207365636F6E6420737461727420A4
:1013CA006661696C65642C207374617475733A2064
:1013DA00252E32780D0A0049324320454550524F96
:1013EA004D2072656164207265717565737420663B
:1013FA0061696C65642C207374617475733A202575
:10140A002E32780D0A0049324320454550524F4D3D
:10141A002072656164206661696C65642C2073744E
:10142A00617475733A20252E32780D0A00252E3301
:08143A00783A2025780D0A0024
:00000001FF
