:100000000C9441000C945E000C945E000C945E0015
:100010000C945E000C945E000C945E000C945E00E8
:100020000C945E000C945E000C945E000C945E00D8
:100030000C945E000C945E000C945E000C945E00C8
:100040000C945E000C945E000C942B010C94E00068
:100050000C945E000C945E000C945E000C945E00A8
:100060000C945E000C945E006364696E6F7073752F
:1000700078585B007265616400007772697465008E
:10008000000011241FBECFEFD8E0DEBFCDBF12E0CD
:10009000A0E0B1E0ECEFFEE102C005900D92A83EB9
:1000A000B107D9F724E0A8EEB2E001C01D92A53C4B
:1000B000B207E1F70E9417030C947C0F0C94000028
:1000C000809100012091E802082E000C990B019606
:1000D000022E000C330B8217930791F380910001DD
:1000E000833621F48091E802882351F38091000146
:1000F0008F5F809300018091000184362CF0809105
:100100000001845680930001E09100010E2E000C46
:10011000FF0BE950FC4F8081082E000C990B0895CD
:100120002091E902909101012917D1F39091E90200
:10013000943621F490910101191694F79091E902F7
:1001400094362CF09091E90294569093E902E09154
:10015000E9020E2E000CFF0BE55AFB4F80838091C5
:10016000E9028F5F8093E90280910101833689F073
:10017000809101012091E902082E000C990B029652
:10018000022E000C330B8217930739F080E090E0C9
:1001900008958091E902813059F78091C100806211
:1001A0008093C100F3CF87E690E09093C5008093E1
:1001B000C40088E18093C10086E08093C200089566
:1001C0001F920F920FB60F9211242F933F938F938C
:1001D0009F93EF93FF9380910101833691F180917A
:1001E00001012091E902082E000C990B0196022EC4
:1001F000000C330B8217930741F1809101018F5F4F
:1002000080930101809101018436ACF4E0910101F9
:100210000E2E000CFF0BE55AFB4F80818093C60029
:10022000FF91EF919F918F913F912F910F900FBE72
:100230000F901F90189580910101845680930101C1
:10024000E5CF8091E9028111CACF8091C1008F7DF5
:100250008093C100E5CF1F920F920FB60F92112429
:100260008F93EF93FF938091E80284362CF0809176
:10027000E80284568093E802E091E8028091C6008B
:100280000E2E000CFF0BE950FC4F80838091E8029A
:100290008F5F8093E802FF91EF918F910F900FBED7
:1002A0000F901F90189590ED980F9A3060F09FEB8B
:1002B000980F963038F4282F880F330B27533109C5
:1002C000C90108950895282F880F330B2053310951
:1002D000C90108950F931F93CF93DF93EC010E9400
:1002E000E9028091B900887F8830A9F08091B90037
:1002F000887F1F928F9388EB91E09F938F930E944A
:100300006A090F900F900F900F90DF91CF911F917E
:100310000F910C94F5028E0100271170000F012F30
:10032000001F110B1195802F806A0E940D03809190
:10033000B900887F883141F08091B900887F1F9291
:100340008F9388E891E0D9CF8C2F0E940D03809184
:10035000B900887F883241F08091B900887F1F9270
:100360008F938AE591E0C9CF0E94E9028091B9009C
:10037000887F803141F08091B900887F1F928F93F0
:1003800082E391E0BACF802F816A0E940D038091B1
:10039000B900887F803441F08091B900887F1F9236
:1003A0008F9383E091E0A9CFDF91CF911F910F91BF
:1003B00008954F925F926F927F928F929F92AF9229
:1003C000BF92CF92DF92EF92FF920F931F93CF9342
:1003D000DF93EC01562EC11581E0D80729F0CF3FFD
:1003E00091E0D90708F4E3C0E52CF12CDF93CF931B
:1003F0001F925F928EED91E09F938F930E946A0906
:100400005C0E5D0E0F900F900F900F900F900F905D
:10041000E114F10409F458C000E010E081E3882EF3
:1004200082E0982E9AEEC92E91E0D92E21E1622E1B
:1004300022E0722E570181E0A81AB1081CC00A15EB
:100440001B0529F1C11592E0D90708F494C080E09A
:1004500090E0412C21969F938F939F928F920E94C0
:100460006A09540C0F900F900F900F900F5F1F4F61
:10047000E016F10649F1C11591E0D90709F473C0FE
:10048000CF3F8FE1D80719F0CF3FD105C1F60E94C9
:100490000303482E8091B900887F883509F44CC049
:1004A0008091B900887F1F928F93DF92CF920E9434
:1004B0006A090E94F5020F900F900F900F900F5F46
:1004C0001F4FE016F106B9F651941F925F9286E332
:1004D00092E09F938F930E946A090E94F10280919B
:1004E000B900887F0F900F900F900F90883F09F40C
:1004F00057C08091B900887F1F928F9381E192E06D
:100500009F938F930E946A090E94F5020F900F90AB
:100510000F900F90CE01DF91CF911F910F91FF901F
:10052000EF90DF90CF90BF90AF909F908F907F9093
:100530006F905F904F9008950E94F1028091B900F2
:10054000887F883F21F18091B900887F1F928F9327
:100550007F926F920E946A090E94F5020F900F909D
:100560000F900F9083CF80E091E00E946A010A15FE
:100570001B0509F48CCF0E94F902482E8091B90026
:10058000887F803509F08CCF842D90E063CF8FE198
:100590009EE40197F1F700C00000842D90E05ACF4F
:1005A0008FE19EE40197F1F700C00000B3CFCE01C8
:1005B0000E946A0119CF80E28093B800ECEBF0E072
:1005C00080818460808308958091BC0087FFFCCF88
:1005D000089584EA8093BC008091BC0087FFFCCF23
:1005E000089584E98093BC00089580E98093BC005D
:1005F000089584EC8093BC008091BC0087FFFCCF01
:100600008091BB00089584E88093BC008091BC0079
:1006100087FFFCCF8091BB0008958093BB0084E8E6
:100620008093BC008091BC0087FFFCCF0895CF93DE
:10063000DF93CDB7DEB7C258D2400FB6F894DEBF15
:100640000FBECDBF87E690E09093C5008093C400B5
:1006500088E18093C10086E08093C2008AEE92E038
:1006600020E930E03093F3022093F20220E630E0FC
:100670003093F5022093F40223E02093ED021092D0
:10068000F7021092F6029093C4048093C3049093EF
:10069000C2048093C1049093C0048093BF047894F3
:1006A0008091C10080688093C1000E94DB029E019E
:1006B0002B593D4FC559DD4F39832883CB56D24046
:1006C000CB59DD4F19821882C556D240AE014D5923
:1006D0005D4FC759DD4F59834883C956D240CD5924
:1006E000DD4F19821882C356D240BE016F5F7F4F23
:1006F0005B01CE01875A9D4FC959DD4F998388838D
:10070000C756D2404091BF045091C00468E572E0E2
:10071000C5010E943E09009719F0A816B90691F785
:10072000BF92AF922DE332E03F932F930E946A096C
:10073000C659DD4F5881CA56D2405F93C759DD4F25
:100740006881C956D2406F93C459DD4F7881CC5629
:10075000D2407F93C559DD4F8881CB56D2408F93CD
:10076000C859DD4F9881C856D2409F93C959DD4F73
:100770002881C756D2402F9381E492E09F938F93B4
:10078000BF92AF920E948009182F6AE770E0CE01F5
:10079000875A9D4F0E9435090FB6F894DEBF0FBEF1
:1007A000CDBF892B09F0D6C2133009F43CC41130F7
:1007B00009F0A8CFF8E88F2EF1E09F2EA8E4CA2E0A
:1007C000A2E0DA2E4091BF045091C00468E572E0C7
:1007D000C5010E943E09009719F0A816B90691F7C5
:1007E000BF92AF922DE332E03F932F930E946A09AC
:1007F0000F900F900F900F9089818A3309F074C485
:100800008B8190ED980F9A3008F05CC2082E000C96
:10081000990BBC0160537109C358DD4F798368831C
:10082000CD57D2408A8190ED980F9A3008F038C2A7
:10083000082E000C990BAC0140535109C558DD4FEF
:1008400059834883CB57D240C558DD4F2881398121
:10085000CB57D24022953295307F3227207F3227E6
:10086000C358DD4F88819981CD57D240280F391F59
:10087000CD59DD4F39832883C356D2408F8190ED07
:10088000980F9A3008F0CCC1082E000C990BAC01DF
:1008900040535109C159DD4F59834883CF56D24047
:1008A0008D8190ED980F9A3008F0D1C1082E000C80
:1008B000990BAC0140535109C758DD4F5983488308
:1008C000C957D2408C8190ED980F9A3008F0D6C16C
:1008D000082E000C990BAC0140535109CF58DD4F45
:1008E00059834883C157D240CF58DD4F08811981C1
:1008F000C157D24002951295107F1027007F102714
:10090000C758DD4F88819981C957D240080F191FF8
:1009100002951295107F1027007F10278E8190ED91
:10092000980F9A3008F0F2C1082E000C990BAC0118
:1009300040535109C958DD4F59834883C757D240A6
:10094000C958DD4F88819981C757D240080F191FB8
:1009500002951295107F1027007F1027C159DD4F97
:1009600048815981CF56D240040F151FCB59DD4F16
:1009700019830883C556D240898590ED980F9A3027
:1009800008F0B2C1082E000C990BBC01605371092C
:10099000CD58DD4F79836883C357D240CD58DD4FA2
:1009A000E880C357D240888590ED980F9A3008F0C0
:1009B00025C1082E000C990BBC0160537109CB585E
:1009C000DD4F79836883C557D240CB58DD4F6881AE
:1009D000C557D24050E1659FE00C1124F22EF00E75
:1009E000F10EFE0C2115310509F4DDC3A8EFB2E0CC
:1009F000FE013A963901660C771CB301675F7F4FA1
:100A0000C501860F971FC359DD4F39832883CD5603
:100A1000D2401CC0442E440F550820E3421A51080E
:100A2000442D508130ED350F3A3028F5252E550FE5
:100A3000330850E3251A310830E1239E400D11247C
:100A40004D93F40E32968E179F0701F1418150EDC0
:100A5000540F5A30F8F25FEB540F563008F7442E1B
:100A6000440F550837E3431A5108442D508130EDA7
:100A7000350F3A30D8F23FEB350F3630E8F6252EF9
:100A8000550F330827E3221A3108D6CFC359DD4F5B
:100A900028813981CD56D240A301465F5F4FF501D1
:100AA000E40FF51F808190ED980F9A3008F040C157
:100AB000082E000C990BAC0140535109CF57DD4F64
:100AC00059834883C158D240CF57DD4F4881C15820
:100AD000D240F501E60FF71F808190ED980F9A3014
:100AE00008F07AC0082E000C990BBC016053710904
:100AF000C158DD4F79836883CF57D240F40EC15877
:100B0000DD4F8881CF57D24070E1879FF00C1124D0
:100B1000F110E1C291E0E91609F4D4C221153105C2
:100B200009F450CEE12CF12C0DC09FEFE91AF90A1F
:100B3000E216F30608F046CECB59DD4F0881198145
:100B4000C556D2400E0D1F1D011542E0140768F76F
:100B50000E94E9028091B900887F8830B1F08091CD
:100B6000B900887F1F928F93DF92CF920E946A090B
:100B70000E94F502CD59DD4F28813981C356D240FC
:100B80000F900F900F900F90D0CFC80188279170D1
:100B9000880F892F881F990B9195806A0E940D03F9
:100BA0008091B900887F883109F4E5C18091B9004E
:100BB000887F1F928F939F928F920E946A090E9452
:100BC000F502CD59DD4F28813981C356D2400F90AF
:100BD0000F900F900F90A9CF9FEB980F963008F0D1
:100BE0008DCF082E000C990BBC0167537109C158B9
:100BF000DD4F79836883CF57D24080CF9FEB980F2A
:100C0000963008F0E2CE082E000C990BAC01475349
:100C10005109CB58DD4F59834883C557D240D5CEB3
:100C20009FEB980F963008F03BCE082E000C990BE6
:100C3000BC0167537109C159DD4F79836883CF5671
:100C4000D2408D8190ED980F9A3008F42FCE9FEB13
:100C5000980F963008F036CE082E000C990BBC0188
:100C600067537109C758DD4F79836883C957D240EC
:100C70008C8190ED980F9A3008F42ACE9FEB980F54
:100C8000963008F031CE082E000C990BBC0167534A
:100C90007109CF58DD4F79836883C157D24024CE84
:100CA0009FEB980F963008F0CFCD082E000C990BD3
:100CB000BC0167537109C558DD4F79836883CB57F1
:100CC000D240C2CD9FEB980F963008F0ABCD082EE6
:100CD000000C990B9C0127533109C358DD4F398310
:100CE0002883CD57D2409ECD9FEB980F963008F0C9
:100CF00055CE082E000C990BAC0147535109CD5825
:100D0000DD4F59834883C357D24048CE9FEB980F9D
:100D1000963008F015CE082E000C990BBC016753D5
:100D20007109C958DD4F79836883C757D24008CE0F
:100D30009FEB980F963008F0C7CE082E000C990B49
:100D4000AC0147535109CF57DD4F59834883C158F0
:100D5000D240BACE64E770E0CE01875A9D4F0E9420
:100D600035097C01892B09F0CDCC123009F47AC108
:100D7000133009F0C7CCCD59DD4F68817981C35656
:100D8000D2406F3F710509F008F4B9C0CB59DD4F6F
:100D900008811981C556D2408EEDC82E81E0D82E2B
:100DA00096E3892E92E0992E011531E0130729F080
:100DB0000F3F41E0140708F40EC11F930F931F92D9
:100DC0005FEF5F93DF92CF920E946A0966246A9474
:100DD000600E610E0F900F900F900F900F900F907C
:100DE000E12CF12C22C09EEFE916F10451F101151E
:100DF00092E0190708F4B3C080E090E0712C0F5F17
:100E00001F4F9F938F9361E372E07F936F930E94D4
:100E10006A09670C0F900F900F900F909FEFE91ADF
:100E2000F90A2FEFE216F10469F1011561E01607E6
:100E300009F48CC00F3F8FE1180719F00F3F11051F
:100E400091F60E940303782E8091B900887F88353F
:100E500009F462C08091B900887F1F928F932AEEB7
:100E600031E03F932F930E946A090E94F5020F9090
:100E70000F900F900F909FEFE91AF90A2FEFE216EB
:100E8000F10499F661941F926F929F928F920E9443
:100E90006A090E94F1028091B900887F0F900F903B
:100EA0000F900F90883F09F48FC08091B900887F20
:100EB0001F928F9321E132E03F932F930E946A09A2
:100EC0000E94F5020F900F900F900F90CB59DD4FBD
:100ED00019830883C556D240CD59DD4F6881798189
:100EE000C356D2406F5F7109CD59DD4F7983688356
:100EF000C356D2406F3F710511F008F055CF611510
:100F0000710509F00AC18AED92E09F938F930E94C8
:100F10006A090F900F90F6CB0E94F1028091B90000
:100F2000887F883F09F447C08091B900887F1F926D
:100F30008F9361E172E07F936F930E946A090E9430
:100F4000F5020F900F900F900F9068CF80E091E026
:100F50000E946A017EEFE716F10409F472CF0E9445
:100F6000F902782E8091B900887F803509F072CF20
:100F7000872D90E044CF802F0E940D038091B9000F
:100F8000887F883261F18091B900887F1F928F93AA
:100F90006AE571E07F936F930E946A090E94F502EF
:100FA000CD59DD4F28813981C356D2400F900F9023
:100FB0000F900F90BACD8FE19EE40197F1F700C03A
:100FC0000000872D90E01BCF8FE19EE40197F1F7A1
:100FD00000C000007BCFC8010E946A01EECEF7017D
:100FE000E850FD4F80810E940D038091B900887FF9
:100FF000883209F482C08091B900887F1F928F9354
:101000002FE632E03F932F930E946A090E94F50277
:10101000CD59DD4F28813981C356D2400F900F90B2
:101020000F900F9082CDCD59DD4F1881C356D2401D
:101030000E94E9028091B900887F883009F496C047
:101040008091B900887F1F928F9388E492E09F93EC
:101050008F930E946A090E94F5020F900F900F90E3
:101060000F9050CB8AEC92E09F938F930E946A0975
:10107000CB59DD4F88819981C556D2400F900F9092
:10108000811522E0920708F060C00E946A010E9468
:101090000303E82E8091B900887F883509F446C0A3
:1010A0008091B900887F1F928F934AEE51E05F9341
:1010B0004F930E946A090E94F5020F900F900F90C3
:1010C0000F9020CB8CEB92E09F938F930E946A0944
:1010D0000F900F9017CB81EB92E09F938F930E941C
:1010E0006A090F900F900ECB82EA92E09F938F9344
:1010F0000E946A090F900F9005CB0E94F102809127
:10110000B900887F883F09F467C08091B900887F63
:101110001F928F9361E172E03DCFCB59DD4F888103
:101120009981C556D2400E94D901EDCE0E94F102AC
:101130008091B900887F883F09F06BC0F12CCB59B2
:10114000DD4F88819981C556D240FF92EF929F93DF
:101150008F938FEC92E09F938F930E946A090F9078
:101160000F900F900F900F900F90CCCACB59DD4F7E
:1011700088819981C556D24088279170880F892F20
:10118000881F990B9195806A0E940D038091B90088
:10119000887F883169F08091B900887F1F928F9392
:1011A00088E891E054CF69E070E04AE050E077CC05
:1011B000CB59DD4F8881C556D2400E940D038091E6
:1011C000B900887F8832A9F08091B900887F1F928A
:1011D0008F938AE591E03BCF8FE19EE40197F1F791
:1011E00000C00000CD59DD4F28813981C356D2405F
:1011F0009CCC812F0E940D038091B900887F88329A
:10120000D1F08091B900887F1F928F938FE692E092
:101210001ECF8091B900887F1F928F9381E192E069
:101220009F938F930E946A090E94F5020F900F907E
:101230000F900F9067CA0E94F1028091B900887FD9
:10124000883F09F45FCA8091B900887F1F928F930D
:1012500061E172E07F936F930E946A090E94F50238
:101260000F900F900F900F904DCAFB01DC018D91F4
:10127000059080190110D9F3990B0895A0E0B0E012
:10128000E4E4F9E00C944F0FFA01238120FD03C040
:1012900080E090E01AC016161706D4F77A018C0188
:1012A000EB016C01C130D10569F0C7010E94510EFC
:1012B0008F3FFFEF9F0761F3F60181936F01219745
:1012C0000A9781F7F6011082C801CDB7DEB7E8E0D2
:1012D0000C946B0FA0E0B0E0E0E7F9E00C94550F40
:1012E000AE014B5F5F4FFA0161917191AF01809147
:1012F000C1049091C2040E949909E2E00C94710F1C
:10130000AEE0B0E0E6E8F9E00C94550F85E08C83A0
:101310008B899C899A838983AE01495E5F4F6D8971
:101320007E89CE0101960E94160D2E96E2E00C9465
:10133000710FABE0B0E0EFE9F9E00C94450F6C0100
:101340007B018A01FC0117821682838181FFCCC157
:10135000CE0101963C01F6019381F70193FD859141
:1013600093FF81917F01882309F4BAC1853239F452
:1013700093FD859193FF81917F01853229F4B60118
:1013800090E00E948F0EE7CF912C212C312CFFE1B1
:10139000F315D8F08B3279F038F4803279F083325B
:1013A000A1F4232D20611DC08D3261F0803369F4DA
:1013B000232D216016C0832D8260382EE32DE4603A
:1013C0003E2E2AC0F32DF8601DC037FC2DC020ED45
:1013D000280F2A3040F08E32B9F436FC81C1232D1B
:1013E0002064322E19C036FE06C08AE0989E200D79
:1013F0001124922E11C0EAE02E9E200D1124222EDF
:10140000F32DF0623F2E08C08C3621F4832D8068C6
:10141000382E02C0883641F4F70193FD859193FF81
:1014200081917F018111B3CF982F9F7D9554933087
:1014300028F40C5F1F4F9FE399830DC0833631F072
:10144000833771F0833509F059C021C0F8018081DC
:1014500089830E5F1F4F88248394912C530113C0FE
:101460002801F2E04F0E511CF801A080B18036FE39
:1014700003C0692D70E002C06FEF7FEFC5010E94CD
:10148000460E4C018201F32DFF773F2E16C0280136
:1014900022E0420E511CF801A080B18036FE03C04C
:1014A000692D70E002C06FEF7FEFC5010E943B0E17
:1014B0004C01F32DF0683F2E820133FC1BC0822DBE
:1014C00090E088169906B0F4B60180E290E00E94A0
:1014D0008F0E2A94F4CFF50137FC859137FE819168
:1014E0005F01B60190E00E948F0E21102A9421E046
:1014F000821A91088114910471F7E8C0843611F0C2
:10150000893641F5F80137FE07C06081718182811B
:1015100093810C5F1F4F08C060817181072E000C02
:10152000880B990B0E5F1F4FF32DFF763F2E97FF11
:1015300009C090958095709561957F4F8F4F9F4F13
:10154000F0683F2E2AE030E0A3010E94E40E882ECE
:10155000861845C0853731F4232D2F7EB22E2AE020
:1015600030E025C0932D997FB92E8F36C1F018F445
:10157000883579F0B5C0803719F0883721F0B0C0D0
:10158000E92FE061BE2EB4FE0DC0FB2DF460BF2E2E
:1015900009C034FE0AC0292F2660B22E06C028E0FA
:1015A00030E005C020E130E002C020E132E0F80187
:1015B000B7FE07C060817181828193810C5F1F4FEC
:1015C00006C06081718180E090E00E5F1F4FA30133
:1015D0000E94E40E882E8618FB2DFF773F2E36FEE4
:1015E0000DC0232D2E7FA22E891458F434FE0BC07B
:1015F00032FC09C0832D8E7EA82E05C0B82CA32CEA
:1016000003C0B82C01C0B92CA4FE0FC0FE01E80D28
:10161000F11D8081803321F49A2D997EA92E09C075
:10162000A2FE06C0B394B39404C08A2D867809F054
:10163000B394A3FC11C0A0FE06C0B21488F4280C19
:10164000922C9B180EC0B21460F4B60180E290E0B8
:101650000E948F0EB394F7CFB21418F42B1802C067
:10166000982C212CA4FE10C0B60180E390E00E94CB
:101670008F0EA2FE17C0A1FC03C088E790E002C055
:1016800088E590E0B6010CC08A2D867859F0A1FE5D
:1016900002C08BE201C080E2A7FC8DE2B60190E0BF
:1016A0000E948F0E891438F4B60180E390E00E9406
:1016B0008F0E9A94F7CF8A94F301E80DF11D808183
:1016C000B60190E00E948F0E8110F5CF222009F420
:1016D00042CEB60180E290E00E948F0E2A94F6CFAF
:1016E000F6018681978102C08FEF9FEF2B96E2E192
:1016F0000C94610F20FD09C0FC0123FD05C022FFF1
:1017000002C07383628351834083089544FD17C0F0
:1017100046FD17C0AB01BC01DA01FB01AA0FBB1FDC
:10172000EE1FFF1F1094D1F74A0F5B1F6E1F7F1F24
:10173000CB01BA01660F771F881F991F09C033E0DC
:1017400001C034E0660F771F881F991F3150D1F711
:10175000620F711D811D911D08950F931F93CF93EB
:10176000DF938C01C8010E94510EEC0197FD08C067
:101770000E94270E892BB1F7B801CE010E94CB0E33
:10178000CE01DF91CF911F910F9108958F929F927B
:10179000AF92BF92EF92FF920F931F93CF93DF937D
:1017A0008C01D62F7A01B22E0E94510E9C01332754
:1017B0002B32310531F02D32310561F48B2D8068EB
:1017C000B82ED15011F480E068C0C8010E94510EBB
:1017D00097FDF9CFCB2DCD7F2B2D207309F58033CD
:1017E000F9F4AA24AA94AD0E09F443C0C8010E94DA
:1017F000510E97FD3EC09C012F7D332728353105C2
:1018000049F4C264D250A9F1C8010E94510E97FF59
:1018100007C02FC0B6FE02C0C26001C0C261DA2D8F
:10182000812C912C540120ED280F283080F0C4FF2A
:1018300004C0B8010E94CB0E19C02A3040F0C6FF88
:10184000F8CF2F7D3FEE320F363098F727504C2FD0
:10185000C501B4010E94860B4B015C01C260D150EE
:1018600059F0C8010E94510E97FFDDCFC1FD04C0A1
:10187000AACF812C912C5401C7FF08C0B094A0942A
:1018800090948094811C911CA11CB11C2C2FB5013B
:10189000A401C7010E947A0B81E0DF91CF911F91D3
:1018A0000F91FF90EF90BF90AF909F908F90089511
:1018B000A0E2B0E0EEE5FCE00C94480F5C01962E4F
:1018C0007A01F9018E010F5F1F4F680180E2D80194
:1018D0001D928A95E9F7D50113968C9080E090E0EF
:1018E000612C712C30E061E070E083FC259183FE77
:1018F00021918F01522E211103C080E090E092C00F
:101900002E3511F4009751F1432F50E04817590735
:101910003CF42D3559F12D3219F4772009F103C02B
:10192000772009F46AC0452D469546954695D6011F
:10193000A40FB11D452D47708B0102C0000F111F70
:101940004A95E2F7A8015C91452B4C93651459F038
:10195000561410F45394E7CF5A94E5CF31E004C005
:101960007724739401C0712C0196BFCF772019F0B2
:101970008E8180628E83311103C08824839417C0C6
:10198000F6019E012F5D3F4F8081809581932E1738
:101990003F07D1F7F2CFE114F10429F0D7018C937E
:1019A000F70131967F019A94812C9920F9F0C501B5
:1019B0000E94510E97FD18C0FC01FF2723E0F5950A
:1019C000E7952A95E1F7EC0DFD1D208130E0AC0193
:1019D0004770552702C0359527954A95E2F720FDB7
:1019E000DACFB5010E94CB0E811087CFE114F1044C
:1019F00011F0D7011C92C80115C0422F469546959B
:101A00004695D601A40FB11D422F47708B0102C02D
:101A1000000F111F4A95E2F7A8015C91452B4C93EA
:101A2000622EA2CFA096EFE00C94640FA0E0B0E08D
:101A3000ECE1FDE00C94480F6C01EB015A01FC0154
:101A400017821682512CF601E380FE01E3FC85919A
:101A5000E3FE8191182FEF01882309F4EEC090E096
:101A60000E94270E892B21F0C6010E94AD0BEBCFFF
:101A7000153241F4FE01E3FC1591E3FE1191EF01F3
:101A8000153281F4C6010E94510E97FDD4C0412F3A
:101A900050E09C01332724173507A9F2B6010E94B4
:101AA000CB0ECBC01A3239F4E3FC1591E3FE119151
:101AB000EF0101E001C000E0F12C20ED210F2A3000
:101AC00080F402606F2D70E080E090E040E20E94C0
:101AD000860BF62EFE01E3FC1591E3FE1191EF015A
:101AE000ECCF01FF03C0F11003C0A7C0FF24FA949C
:101AF000183619F01C3651F010C0FE01E3FC1591A8
:101B0000E3FE1191EF01183641F408600460FE0114
:101B1000E3FC1591E3FE1191EF01112309F48DC04F
:101B2000612F70E088E690E00E94300E892B09F466
:101B300084C000FD07C0F50180809180C501029638
:101B40005C0102C0812C912C1E3651F4F6014681B5
:101B5000578160E070E0202FC4010E947A0B73CFA0
:101B60001336A9F401FD02C0FF24F394C6010E94BC
:101B7000510E97FD60C08114910429F0F401808317
:101B8000C40101964C01FA94F110F0CF50C01B35FE
:101B900059F49E01A4016F2DC6010E94580CEC015E
:101BA000892B09F044C03EC0C6010E94AD0B97FDD1
:101BB00042C01F3661F128F4143639F1193651F15B
:101BC00028C0133771F0153701F123C08114910437
:101BD00029F0F4016082C40101964C01FA94FF20BF
:101BE00071F0C6010E94510E3C0197FD08C00E9491
:101BF000270E892B59F3B601C3010E94CB0E811425
:101C00009104A9F0F401108212C0006203C00061C7
:101C100001C00064202FA4016F2DC6010E94C60BD5
:101C2000811105C0F6018381807329F406C000FD8F
:101C30000ACF539408CF552019F0852D90E002C0AB
:101C40008FEF9FEFCDB7DEB7EFE00C94640F9111EB
:101C50000C94420F803219F089508550C8F70895CE
:101C6000FC010590061621F00020D9F7C001089567
:101C70003197CF010895FC0105906150704001102B
:101C8000D8F7809590958E0F9F1F0895FC016150A5
:101C9000704001900110D8F7809590958E0F9F1F8E
:101CA0000895CF93DF93EC012B8120FF33C026FFF3
:101CB0000AC02F7B2B838E819F8101969F838E8309
:101CC0008A8190E029C022FF0FC0E881F9818081DC
:101CD000082E000C990B009719F420622B831AC070
:101CE0003196F983E8830EC0EA85FB85099597FF55
:101CF00009C02B81019611F080E201C080E1822BA6
:101D00008B8308C02E813F812F5F3F4F3F832E83FF
:101D1000992702C08FEF9FEFDF91CF9108950F9326
:101D20001F93CF93DF93FB01238121FD03C08FEF2E
:101D30009FEF2CC022FF16C0468157812481358138
:101D40004217530744F4A081B1819D012F5F3F4F9B
:101D5000318320838C93268137812F5F3F4F3783D8
:101D6000268314C08B01EC01FB010084F185E02D7A
:101D70000995892BE1F6D80116968D919C911797BC
:101D8000019617969C938E931697CE01DF91CF9173
:101D90001F910F910895FB01238120FF12C026FDA2
:101DA00010C08F3F3FEF930761F082832F7D206447
:101DB0002383268137812150310937832683992750
:101DC00008958FEF9FEF0895FA01AA27283051F167
:101DD000203181F1E8946F936E7F6E5F7F4F8F4F5C
:101DE0009F4FAF4FB1E03ED0B4E03CD0670F781FBB
:101DF000891F9A1FA11D680F791F8A1F911DA11DA0
:101E00006A0F711D811D911DA11D20D009F46894D8
:101E10003F912AE0269F11243019305D3193DEF680
:101E2000CF010895462F4770405D4193B3E00FD036
:101E3000C9F7F6CF462F4F70405D4A3318F0495D21
:101E400031FD4052419302D0A9F7EACFB4E0A69504
:101E50009795879577956795BA95C9F70097610526
:101E6000710508959B01AC010A2E0694579547957C
:101E700037952795BA95C9F7620F731F841F951F71
:101E8000A01D08959927882708952F923F924F9279
:101E90005F926F927F928F929F92AF92BF92CF92FA
:101EA000DF92EF92FF920F931F93CF93DF93CDB703
:101EB000DEB7CA1BDB0B0FB6F894DEBF0FBECDBF7B
:101EC00009942A88398848885F846E847D848C844C
:101ED0009B84AA84B984C884DF80EE80FD800C8155
:101EE0001B81AA81B981CE0FD11D0FB6F894DEBF38
:0C1EF0000FBECDBFED010895F894FFCFA8
:101EFC00FFFFA049324320454550524F4D2072659B
:101F0C0061642072657175657374206661696C65B6
:101F1C00642C207374617475733A20252E32780DFD
:101F2C000A00493243207365636F6E6420737461D9
:101F3C007274206661696C65642C207374617475AD
:101F4C00733A20252E32780D0A004932432045453C
:101F5C0050524F4D207365742061646472657373C5
:101F6C00206661696C65642C207374617475733AB6
:101F7C0020252E32780D0A00493243204545505217
:101F8C004F4D207772697465207265717565737435
:101F9C00206661696C65642C207374617475733A86
:101FAC0020252E32780D0A00493243207265616477
:101FBC00207374617274206661696C65642C207383
:101FCC0074617475733A20252E32780D0A003A2507
:101FDC002E3258252E345830300049324320454596
:101FEC0050524F4D2072656164206661696C656466
:101FFC002C207374617475733A20252E32780D0A77
:10200C00004932432073746F70206661696C65649B
:10201C002C207374617475733A20252E32780D0A56
:10202C0000252E325800252E32580A0D0025730D2E
:10203C00002573257825780049324320777269741E
:10204C0065207374617274206661696C65642C2000
:10205C007374617475733A20252E32780D0A004919
:10206C00324320454550524F4D20646174612074B9
:10207C0072616E736D6974746564206661696C65F8
:10208C00642C207374617475733A20252E32780D8C
:10209C000A0042616420626567696E696E670A0DA9
:1020AC000042616420446174610A0D00456E642035
:1020BC006F6620446174610A0D004F4B0A0D0025B8
:1020CC002E33783A2025780D0A003A3030303030F3
:0820DC0030303146460A0D00C8
:00000001FF
