:100000000C9434000C9446000C9446000C9446006A
:100010000C9446000C9446000C9446000C94460048
:100020000C9446000C9446000C9446000C94460038
:100030000C9446000C9446000C9446000C94460028
:100040000C9446000C9446000C9446000C94460018
:100050000C9446000C9446000C9446000C94460008
:100060000C9446000C94460011241FBECFEFD8E03C
:10007000DEBFCDBF24E0A0E0B1E001C01D92A83EEC
:10008000B207E1F70E9448000C9469000C9400004C
:100090008AB1806E8AB98BB11BB83898409A80E0DB
:1000A00021E00BC05F9A309912C020838F5FEFE987
:1000B000FFE03197F1F700C00000E82FF0E0E050DA
:1000C000FF4F90819111EECF5F98309BEECF108261
:0600D000EDCFF894FFCF14
:00000001FF
